{
  "address": "0x422F325AA109A3038BDCb7B03Dd0331A4aC2cD1a",
  "abi": [
    {
      "anonymous": false,
      "inputs": [
        {
          "indexed": false,
          "internalType": "uint64",
          "name": "value",
          "type": "uint64"
        }
      ],
      "name": "Debug",
      "type": "event"
    },
    {
      "anonymous": false,
      "inputs": [
        {
          "indexed": false,
          "internalType": "enum Modicum.Architecture",
          "name": "arch",
          "type": "uint8"
        }
      ],
      "name": "DebugArch",
      "type": "event"
    },
    {
      "anonymous": false,
      "inputs": [
        {
          "indexed": false,
          "internalType": "string",
          "name": "str",
          "type": "string"
        }
      ],
      "name": "DebugString",
      "type": "event"
    },
    {
      "anonymous": false,
      "inputs": [
        {
          "indexed": false,
          "internalType": "uint256",
          "name": "value",
          "type": "uint256"
        }
      ],
      "name": "DebugUint",
      "type": "event"
    },
    {
      "anonymous": false,
      "inputs": [
        {
          "indexed": false,
          "internalType": "address",
          "name": "_from",
          "type": "address"
        },
        {
          "indexed": false,
          "internalType": "address",
          "name": "to",
          "type": "address"
        },
        {
          "indexed": false,
          "internalType": "uint256",
          "name": "value",
          "type": "uint256"
        },
        {
          "indexed": false,
          "internalType": "enum Modicum.EtherTransferCause",
          "name": "cause",
          "type": "uint8"
        }
      ],
      "name": "EtherTransferred",
      "type": "event"
    },
    {
      "anonymous": false,
      "inputs": [
        {
          "indexed": false,
          "internalType": "address",
          "name": "addr",
          "type": "address"
        },
        {
          "indexed": false,
          "internalType": "uint256",
          "name": "matchId",
          "type": "uint256"
        }
      ],
      "name": "JobAssignedForMediation",
      "type": "event"
    },
    {
      "anonymous": false,
      "inputs": [
        {
          "indexed": false,
          "internalType": "address",
          "name": "addr",
          "type": "address"
        },
        {
          "indexed": false,
          "internalType": "address",
          "name": "mediator",
          "type": "address"
        }
      ],
      "name": "JobCreatorAddedTrustedMediator",
      "type": "event"
    },
    {
      "anonymous": false,
      "inputs": [
        {
          "indexed": false,
          "internalType": "address",
          "name": "addr",
          "type": "address"
        },
        {
          "indexed": false,
          "internalType": "uint256",
          "name": "penaltyRate",
          "type": "uint256"
        }
      ],
      "name": "JobCreatorRegistered",
      "type": "event"
    },
    {
      "anonymous": false,
      "inputs": [
        {
          "indexed": false,
          "internalType": "uint256",
          "name": "offerId",
          "type": "uint256"
        }
      ],
      "name": "JobOfferCanceled",
      "type": "event"
    },
    {
      "anonymous": false,
      "inputs": [
        {
          "indexed": false,
          "internalType": "uint256",
          "name": "offerId",
          "type": "uint256"
        },
        {
          "indexed": false,
          "internalType": "uint256",
          "name": "ijoid",
          "type": "uint256"
        },
        {
          "indexed": false,
          "internalType": "address",
          "name": "addr",
          "type": "address"
        },
        {
          "indexed": false,
          "internalType": "uint256",
          "name": "instructionLimit",
          "type": "uint256"
        },
        {
          "indexed": false,
          "internalType": "uint256",
          "name": "bandwidthLimit",
          "type": "uint256"
        },
        {
          "indexed": false,
          "internalType": "uint256",
          "name": "instructionMaxPrice",
          "type": "uint256"
        },
        {
          "indexed": false,
          "internalType": "uint256",
          "name": "bandwidthMaxPrice",
          "type": "uint256"
        },
        {
          "indexed": false,
          "internalType": "uint256",
          "name": "completionDeadline",
          "type": "uint256"
        },
        {
          "indexed": false,
          "internalType": "uint256",
          "name": "deposit",
          "type": "uint256"
        },
        {
          "indexed": false,
          "internalType": "uint256",
          "name": "matchIncentive",
          "type": "uint256"
        }
      ],
      "name": "JobOfferPostedPartOne",
      "type": "event"
    },
    {
      "anonymous": false,
      "inputs": [
        {
          "indexed": false,
          "internalType": "uint256",
          "name": "offerId",
          "type": "uint256"
        },
        {
          "indexed": false,
          "internalType": "address",
          "name": "addr",
          "type": "address"
        },
        {
          "indexed": false,
          "internalType": "uint256",
          "name": "hash",
          "type": "uint256"
        },
        {
          "indexed": false,
          "internalType": "string",
          "name": "uri",
          "type": "string"
        },
        {
          "indexed": false,
          "internalType": "address",
          "name": "directory",
          "type": "address"
        },
        {
          "indexed": false,
          "internalType": "enum Modicum.Architecture",
          "name": "arch",
          "type": "uint8"
        },
        {
          "indexed": false,
          "internalType": "uint256",
          "name": "ramLimit",
          "type": "uint256"
        },
        {
          "indexed": false,
          "internalType": "uint256",
          "name": "localStorageLimit",
          "type": "uint256"
        },
        {
          "indexed": false,
          "internalType": "string",
          "name": "extras",
          "type": "string"
        }
      ],
      "name": "JobOfferPostedPartTwo",
      "type": "event"
    },
    {
      "anonymous": false,
      "inputs": [
        {
          "indexed": false,
          "internalType": "uint256",
          "name": "matchId",
          "type": "uint256"
        },
        {
          "indexed": false,
          "internalType": "uint256",
          "name": "cost",
          "type": "uint256"
        }
      ],
      "name": "MatchClosed",
      "type": "event"
    },
    {
      "anonymous": false,
      "inputs": [
        {
          "indexed": false,
          "internalType": "address",
          "name": "addr",
          "type": "address"
        },
        {
          "indexed": false,
          "internalType": "uint256",
          "name": "matchId",
          "type": "uint256"
        },
        {
          "indexed": false,
          "internalType": "uint256",
          "name": "jobOfferId",
          "type": "uint256"
        },
        {
          "indexed": false,
          "internalType": "uint256",
          "name": "resourceOfferId",
          "type": "uint256"
        },
        {
          "indexed": false,
          "internalType": "address",
          "name": "mediator",
          "type": "address"
        }
      ],
      "name": "Matched",
      "type": "event"
    },
    {
      "anonymous": false,
      "inputs": [
        {
          "indexed": false,
          "internalType": "uint256",
          "name": "matchId",
          "type": "uint256"
        },
        {
          "indexed": false,
          "internalType": "address",
          "name": "addr",
          "type": "address"
        },
        {
          "indexed": false,
          "internalType": "uint256",
          "name": "result",
          "type": "uint256"
        },
        {
          "indexed": false,
          "internalType": "enum Modicum.Party",
          "name": "faultyParty",
          "type": "uint8"
        },
        {
          "indexed": false,
          "internalType": "enum Modicum.Verdict",
          "name": "verdict",
          "type": "uint8"
        },
        {
          "indexed": false,
          "internalType": "enum Modicum.ResultStatus",
          "name": "status",
          "type": "uint8"
        },
        {
          "indexed": false,
          "internalType": "string",
          "name": "uri",
          "type": "string"
        },
        {
          "indexed": false,
          "internalType": "string",
          "name": "hash",
          "type": "string"
        },
        {
          "indexed": false,
          "internalType": "uint256",
          "name": "instructionCount",
          "type": "uint256"
        },
        {
          "indexed": false,
          "internalType": "uint256",
          "name": "mediationCost",
          "type": "uint256"
        }
      ],
      "name": "MediationResultPosted",
      "type": "event"
    },
    {
      "anonymous": false,
      "inputs": [
        {
          "indexed": false,
          "internalType": "address",
          "name": "addr",
          "type": "address"
        },
        {
          "indexed": false,
          "internalType": "uint256",
          "name": "firstLayerHash",
          "type": "uint256"
        }
      ],
      "name": "MediatorAddedSupportedFirstLayer",
      "type": "event"
    },
    {
      "anonymous": false,
      "inputs": [
        {
          "indexed": false,
          "internalType": "address",
          "name": "addr",
          "type": "address"
        },
        {
          "indexed": false,
          "internalType": "address",
          "name": "directory",
          "type": "address"
        }
      ],
      "name": "MediatorAddedTrustedDirectory",
      "type": "event"
    },
    {
      "anonymous": false,
      "inputs": [
        {
          "indexed": false,
          "internalType": "address",
          "name": "addr",
          "type": "address"
        },
        {
          "indexed": false,
          "internalType": "enum Modicum.Architecture",
          "name": "arch",
          "type": "uint8"
        },
        {
          "indexed": false,
          "internalType": "uint256",
          "name": "instructionPrice",
          "type": "uint256"
        },
        {
          "indexed": false,
          "internalType": "uint256",
          "name": "bandwidthPrice",
          "type": "uint256"
        },
        {
          "indexed": false,
          "internalType": "uint256",
          "name": "availabilityValue",
          "type": "uint256"
        },
        {
          "indexed": false,
          "internalType": "uint256",
          "name": "verificationCount",
          "type": "uint256"
        }
      ],
      "name": "MediatorRegistered",
      "type": "event"
    },
    {
      "anonymous": false,
      "inputs": [
        {
          "indexed": false,
          "internalType": "uint256",
          "name": "resOfferId",
          "type": "uint256"
        }
      ],
      "name": "ResourceOfferCanceled",
      "type": "event"
    },
    {
      "anonymous": false,
      "inputs": [
        {
          "indexed": false,
          "internalType": "uint256",
          "name": "offerId",
          "type": "uint256"
        },
        {
          "indexed": false,
          "internalType": "address",
          "name": "addr",
          "type": "address"
        },
        {
          "indexed": false,
          "internalType": "uint256",
          "name": "instructionPrice",
          "type": "uint256"
        },
        {
          "indexed": false,
          "internalType": "uint256",
          "name": "instructionCap",
          "type": "uint256"
        },
        {
          "indexed": false,
          "internalType": "uint256",
          "name": "memoryCap",
          "type": "uint256"
        },
        {
          "indexed": false,
          "internalType": "uint256",
          "name": "localStorageCap",
          "type": "uint256"
        },
        {
          "indexed": false,
          "internalType": "uint256",
          "name": "bandwidthCap",
          "type": "uint256"
        },
        {
          "indexed": false,
          "internalType": "uint256",
          "name": "bandwidthPrice",
          "type": "uint256"
        },
        {
          "indexed": false,
          "internalType": "uint256",
          "name": "deposit",
          "type": "uint256"
        },
        {
          "indexed": false,
          "internalType": "uint256",
          "name": "iroid",
          "type": "uint256"
        }
      ],
      "name": "ResourceOfferPosted",
      "type": "event"
    },
    {
      "anonymous": false,
      "inputs": [
        {
          "indexed": false,
          "internalType": "address",
          "name": "addr",
          "type": "address"
        },
        {
          "indexed": false,
          "internalType": "uint256",
          "name": "firstLayer",
          "type": "uint256"
        }
      ],
      "name": "ResourceProviderAddedSupportedFirstLayer",
      "type": "event"
    },
    {
      "anonymous": false,
      "inputs": [
        {
          "indexed": false,
          "internalType": "address",
          "name": "addr",
          "type": "address"
        },
        {
          "indexed": false,
          "internalType": "address",
          "name": "directory",
          "type": "address"
        }
      ],
      "name": "ResourceProviderAddedTrustedDirectory",
      "type": "event"
    },
    {
      "anonymous": false,
      "inputs": [
        {
          "indexed": false,
          "internalType": "address",
          "name": "addr",
          "type": "address"
        },
        {
          "indexed": false,
          "internalType": "address",
          "name": "mediator",
          "type": "address"
        }
      ],
      "name": "ResourceProviderAddedTrustedMediator",
      "type": "event"
    },
    {
      "anonymous": false,
      "inputs": [
        {
          "indexed": false,
          "internalType": "address",
          "name": "addr",
          "type": "address"
        },
        {
          "indexed": false,
          "internalType": "enum Modicum.Architecture",
          "name": "arch",
          "type": "uint8"
        },
        {
          "indexed": false,
          "internalType": "uint256",
          "name": "timePerInstruction",
          "type": "uint256"
        },
        {
          "indexed": false,
          "internalType": "uint256",
          "name": "penaltyRate",
          "type": "uint256"
        }
      ],
      "name": "ResourceProviderRegistered",
      "type": "event"
    },
    {
      "anonymous": false,
      "inputs": [
        {
          "indexed": false,
          "internalType": "address",
          "name": "addr",
          "type": "address"
        },
        {
          "indexed": false,
          "internalType": "uint256",
          "name": "resultId",
          "type": "uint256"
        },
        {
          "indexed": false,
          "internalType": "uint256",
          "name": "matchId",
          "type": "uint256"
        },
        {
          "indexed": false,
          "internalType": "enum Modicum.ResultStatus",
          "name": "status",
          "type": "uint8"
        },
        {
          "indexed": false,
          "internalType": "string",
          "name": "uri",
          "type": "string"
        },
        {
          "indexed": false,
          "internalType": "string",
          "name": "hash",
          "type": "string"
        },
        {
          "indexed": false,
          "internalType": "uint256",
          "name": "instructionCount",
          "type": "uint256"
        },
        {
          "indexed": false,
          "internalType": "uint256",
          "name": "bandwidthUsage",
          "type": "uint256"
        }
      ],
      "name": "ResultPosted",
      "type": "event"
    },
    {
      "anonymous": false,
      "inputs": [
        {
          "indexed": false,
          "internalType": "address",
          "name": "addr",
          "type": "address"
        },
        {
          "indexed": false,
          "internalType": "uint256",
          "name": "resultId",
          "type": "uint256"
        },
        {
          "indexed": false,
          "internalType": "uint256",
          "name": "matchId",
          "type": "uint256"
        },
        {
          "indexed": false,
          "internalType": "uint256",
          "name": "ResultReaction",
          "type": "uint256"
        }
      ],
      "name": "ResultReaction",
      "type": "event"
    },
    {
      "anonymous": false,
      "inputs": [
        {
          "indexed": false,
          "internalType": "uint256",
          "name": "penaltyRate",
          "type": "uint256"
        }
      ],
      "name": "penaltyRateSet",
      "type": "event"
    },
    {
      "anonymous": false,
      "inputs": [
        {
          "indexed": false,
          "internalType": "uint256",
          "name": "reactionDeadline",
          "type": "uint256"
        }
      ],
      "name": "reactionDeadlineSet",
      "type": "event"
    },
    {
      "inputs": [
        {
          "internalType": "uint256",
          "name": "resultId",
          "type": "uint256"
        }
      ],
      "name": "acceptResult",
      "outputs": [
        {
          "internalType": "uint256",
          "name": "",
          "type": "uint256"
        }
      ],
      "stateMutability": "nonpayable",
      "type": "function"
    },
    {
      "inputs": [
        {
          "internalType": "enum Modicum.Architecture",
          "name": "arch",
          "type": "uint8"
        }
      ],
      "name": "check",
      "outputs": [],
      "stateMutability": "nonpayable",
      "type": "function"
    },
    {
      "inputs": [
        {
          "internalType": "string",
          "name": "name",
          "type": "string"
        }
      ],
      "name": "getModuleCost",
      "outputs": [
        {
          "internalType": "uint256",
          "name": "",
          "type": "uint256"
        }
      ],
      "stateMutability": "view",
      "type": "function"
    },
    {
      "inputs": [
        {
          "internalType": "string",
          "name": "template",
          "type": "string"
        },
        {
          "internalType": "string",
          "name": "params",
          "type": "string"
        }
      ],
      "name": "getModuleSpec",
      "outputs": [
        {
          "internalType": "string",
          "name": "",
          "type": "string"
        }
      ],
      "stateMutability": "pure",
      "type": "function"
    },
    {
      "inputs": [],
      "name": "getRequiredResourceProviderDeposit",
      "outputs": [
        {
          "internalType": "uint256",
          "name": "",
          "type": "uint256"
        }
      ],
      "stateMutability": "view",
      "type": "function"
    },
    {
      "inputs": [
        {
          "internalType": "address",
          "name": "mediator",
          "type": "address"
        }
      ],
      "name": "jobCreatorAddTrustedMediator",
      "outputs": [],
      "stateMutability": "nonpayable",
      "type": "function"
    },
    {
      "inputs": [
        {
          "internalType": "uint256",
          "name": "firstLayerHash",
          "type": "uint256"
        }
      ],
      "name": "mediatorAddSupportedFirstLayer",
      "outputs": [],
      "stateMutability": "nonpayable",
      "type": "function"
    },
    {
      "inputs": [
        {
          "internalType": "address",
          "name": "directory",
          "type": "address"
        }
      ],
      "name": "mediatorAddTrustedDirectory",
      "outputs": [],
      "stateMutability": "nonpayable",
      "type": "function"
    },
    {
      "inputs": [
        {
          "internalType": "address",
          "name": "",
          "type": "address"
        }
      ],
      "name": "mediators",
      "outputs": [
        {
          "internalType": "enum Modicum.Architecture",
          "name": "arch",
          "type": "uint8"
        },
        {
          "internalType": "uint256",
          "name": "instructionPrice",
          "type": "uint256"
        },
        {
          "internalType": "uint256",
          "name": "bandwidthPrice",
          "type": "uint256"
        },
        {
          "internalType": "uint256",
          "name": "availabilityValue",
          "type": "uint256"
        },
        {
          "internalType": "uint256",
          "name": "verificationCount",
          "type": "uint256"
        }
      ],
      "stateMutability": "view",
      "type": "function"
    },
    {
      "inputs": [
        {
          "internalType": "string",
          "name": "moduleName",
          "type": "string"
        },
        {
          "internalType": "uint256",
          "name": "ijoid",
          "type": "uint256"
        },
        {
          "internalType": "uint256",
          "name": "instructionLimit",
          "type": "uint256"
        },
        {
          "internalType": "uint256",
          "name": "bandwidthLimit",
          "type": "uint256"
        },
        {
          "internalType": "uint256",
          "name": "instructionMaxPrice",
          "type": "uint256"
        },
        {
          "internalType": "uint256",
          "name": "bandwidthMaxPrice",
          "type": "uint256"
        },
        {
          "internalType": "uint256",
          "name": "completionDeadline",
          "type": "uint256"
        },
        {
          "internalType": "uint256",
          "name": "matchIncentive",
          "type": "uint256"
        }
      ],
      "name": "postJobOfferPartOne",
      "outputs": [
        {
          "internalType": "uint256",
          "name": "",
          "type": "uint256"
        }
      ],
      "stateMutability": "payable",
      "type": "function"
    },
    {
      "inputs": [
        {
          "internalType": "uint256",
          "name": "ijoid",
          "type": "uint256"
        },
        {
          "internalType": "string",
          "name": "uri",
          "type": "string"
        },
        {
          "internalType": "address",
          "name": "directory",
          "type": "address"
        },
        {
          "internalType": "uint256",
          "name": "jobHash",
          "type": "uint256"
        },
        {
          "internalType": "enum Modicum.Architecture",
          "name": "arch",
          "type": "uint8"
        },
        {
          "internalType": "string",
          "name": "extras",
          "type": "string"
        }
      ],
      "name": "postJobOfferPartTwo",
      "outputs": [
        {
          "internalType": "uint256",
          "name": "",
          "type": "uint256"
        }
      ],
      "stateMutability": "nonpayable",
      "type": "function"
    },
    {
      "inputs": [
        {
          "internalType": "uint256",
          "name": "jobOfferId",
          "type": "uint256"
        },
        {
          "internalType": "uint256",
          "name": "resourceOfferId",
          "type": "uint256"
        },
        {
          "internalType": "address",
          "name": "mediator",
          "type": "address"
        }
      ],
      "name": "postMatch",
      "outputs": [
        {
          "internalType": "uint256",
          "name": "",
          "type": "uint256"
        }
      ],
      "stateMutability": "nonpayable",
      "type": "function"
    },
    {
      "inputs": [
        {
          "internalType": "uint256",
          "name": "matchId",
          "type": "uint256"
        },
        {
          "internalType": "uint256",
          "name": "jobOfferId",
          "type": "uint256"
        },
        {
          "internalType": "enum Modicum.ResultStatus",
          "name": "status",
          "type": "uint8"
        },
        {
          "internalType": "string",
          "name": "uri",
          "type": "string"
        },
        {
          "internalType": "string",
          "name": "hash",
          "type": "string"
        },
        {
          "internalType": "enum Modicum.Verdict",
          "name": "verdict",
          "type": "uint8"
        },
        {
          "internalType": "enum Modicum.Party",
          "name": "faultyParty",
          "type": "uint8"
        }
      ],
      "name": "postMediationResult",
      "outputs": [
        {
          "internalType": "enum Modicum.Party",
          "name": "",
          "type": "uint8"
        }
      ],
      "stateMutability": "nonpayable",
      "type": "function"
    },
    {
      "inputs": [
        {
          "internalType": "uint256",
          "name": "instructionPrice",
          "type": "uint256"
        },
        {
          "internalType": "uint256",
          "name": "instructionCap",
          "type": "uint256"
        },
        {
          "internalType": "uint256",
          "name": "memoryCap",
          "type": "uint256"
        },
        {
          "internalType": "uint256",
          "name": "localStorageCap",
          "type": "uint256"
        },
        {
          "internalType": "uint256",
          "name": "bandwidthCap",
          "type": "uint256"
        },
        {
          "internalType": "uint256",
          "name": "bandwidthPrice",
          "type": "uint256"
        },
        {
          "internalType": "uint256",
          "name": "matchIncentive",
          "type": "uint256"
        },
        {
          "internalType": "uint256",
          "name": "verificationCount",
          "type": "uint256"
        },
        {
          "internalType": "uint256",
          "name": "misc",
          "type": "uint256"
        }
      ],
      "name": "postResOffer",
      "outputs": [],
      "stateMutability": "payable",
      "type": "function"
    },
    {
      "inputs": [
        {
          "internalType": "uint256",
          "name": "matchId",
          "type": "uint256"
        },
        {
          "internalType": "uint256",
          "name": "jobOfferId",
          "type": "uint256"
        },
        {
          "internalType": "enum Modicum.ResultStatus",
          "name": "status",
          "type": "uint8"
        },
        {
          "internalType": "string",
          "name": "uri",
          "type": "string"
        },
        {
          "internalType": "string",
          "name": "hash",
          "type": "string"
        },
        {
          "internalType": "uint256",
          "name": "instructionCount",
          "type": "uint256"
        },
        {
          "internalType": "uint256",
          "name": "bandwidthUsage",
          "type": "uint256"
        }
      ],
      "name": "postResult",
      "outputs": [
        {
          "internalType": "uint256",
          "name": "",
          "type": "uint256"
        }
      ],
      "stateMutability": "nonpayable",
      "type": "function"
    },
    {
      "inputs": [],
      "name": "registerJobCreator",
      "outputs": [],
      "stateMutability": "nonpayable",
      "type": "function"
    },
    {
      "inputs": [
        {
          "internalType": "enum Modicum.Architecture",
          "name": "arch",
          "type": "uint8"
        },
        {
          "internalType": "uint256",
          "name": "instructionPrice",
          "type": "uint256"
        },
        {
          "internalType": "uint256",
          "name": "bandwidthPrice",
          "type": "uint256"
        },
        {
          "internalType": "uint256",
          "name": "availabilityValue",
          "type": "uint256"
        },
        {
          "internalType": "uint256",
          "name": "verificationCount",
          "type": "uint256"
        }
      ],
      "name": "registerMediator",
      "outputs": [],
      "stateMutability": "nonpayable",
      "type": "function"
    },
    {
      "inputs": [
        {
          "internalType": "enum Modicum.Architecture",
          "name": "arch",
          "type": "uint8"
        },
        {
          "internalType": "uint256",
          "name": "timePerInstruction",
          "type": "uint256"
        }
      ],
      "name": "registerResourceProvider",
      "outputs": [],
      "stateMutability": "nonpayable",
      "type": "function"
    },
    {
      "inputs": [
        {
          "internalType": "uint256",
          "name": "resultId",
          "type": "uint256"
        }
      ],
      "name": "rejectResult",
      "outputs": [],
      "stateMutability": "nonpayable",
      "type": "function"
    },
    {
      "inputs": [
        {
          "internalType": "uint256",
          "name": "firstLayerHash",
          "type": "uint256"
        }
      ],
      "name": "resourceProviderAddSupportedFirstLayer",
      "outputs": [],
      "stateMutability": "nonpayable",
      "type": "function"
    },
    {
      "inputs": [
        {
          "internalType": "address",
          "name": "directory",
          "type": "address"
        }
      ],
      "name": "resourceProviderAddTrustedDirectory",
      "outputs": [],
      "stateMutability": "nonpayable",
      "type": "function"
    },
    {
      "inputs": [
        {
          "internalType": "address",
          "name": "mediator",
          "type": "address"
        }
      ],
      "name": "resourceProviderAddTrustedMediator",
      "outputs": [],
      "stateMutability": "nonpayable",
      "type": "function"
    },
    {
      "inputs": [
        {
          "internalType": "string",
          "name": "name",
          "type": "string"
        },
        {
          "internalType": "string",
          "name": "params",
          "type": "string"
        },
        {
          "internalType": "address[]",
          "name": "_mediators",
          "type": "address[]"
        }
      ],
      "name": "runModule",
      "outputs": [
        {
          "internalType": "uint256",
          "name": "",
          "type": "uint256"
        }
      ],
      "stateMutability": "payable",
      "type": "function"
    },
    {
      "inputs": [
        {
          "internalType": "string",
          "name": "name",
          "type": "string"
        },
        {
          "internalType": "string",
          "name": "params",
          "type": "string"
        }
      ],
      "name": "runModuleWithDefaultMediators",
      "outputs": [
        {
          "internalType": "uint256",
          "name": "",
          "type": "uint256"
        }
      ],
      "stateMutability": "payable",
      "type": "function"
    },
    {
      "inputs": [
        {
          "internalType": "address[]",
          "name": "_defaultMediators",
          "type": "address[]"
        }
      ],
      "name": "setDefaultMediators",
      "outputs": [],
      "stateMutability": "nonpayable",
      "type": "function"
    },
    {
      "inputs": [
        {
          "internalType": "string",
          "name": "name",
          "type": "string"
        },
        {
          "internalType": "uint256",
          "name": "cost",
          "type": "uint256"
        }
      ],
      "name": "setModuleCost",
      "outputs": [],
      "stateMutability": "nonpayable",
      "type": "function"
    },
    {
      "inputs": [
        {
          "internalType": "uint256",
          "name": "_penaltyRate",
          "type": "uint256"
        }
      ],
      "name": "setPenaltyRate",
      "outputs": [],
      "stateMutability": "nonpayable",
      "type": "function"
    },
    {
      "inputs": [
        {
          "internalType": "uint256",
          "name": "_reactionDeadline",
          "type": "uint256"
        }
      ],
      "name": "setReactionDeadline",
      "outputs": [],
      "stateMutability": "nonpayable",
      "type": "function"
    },
    {
      "inputs": [
        {
          "internalType": "uint256",
          "name": "multiple",
          "type": "uint256"
        }
      ],
      "name": "setResourceProviderDepositMultiple",
      "outputs": [],
      "stateMutability": "nonpayable",
      "type": "function"
    },
    {
      "inputs": [
        {
          "internalType": "string",
          "name": "_myString",
          "type": "string"
        },
        {
          "internalType": "string[]",
          "name": "_arr",
          "type": "string[]"
        }
      ],
      "name": "stringExists",
      "outputs": [
        {
          "internalType": "bool",
          "name": "",
          "type": "bool"
        }
      ],
      "stateMutability": "pure",
      "type": "function"
    },
    {
      "inputs": [
        {
          "internalType": "uint256",
          "name": "value",
          "type": "uint256"
        }
      ],
      "name": "test",
      "outputs": [],
      "stateMutability": "nonpayable",
      "type": "function"
    }
  ],
  "transactionHash": "0x8a9dc85ca7c36af0dde32ea703c87f98e957c19d30b316394b9c6783894b9cca",
  "args": [],
  "numDeployments": 3,
  "solcInputHash": "619a2416cb45c2454873c30d67b5c0d6",
  "bytecode": "0x608060405233600160006101000a81548173ffffffffffffffffffffffffffffffffffffffff021916908373ffffffffffffffffffffffffffffffffffffffff160217905550600160075560016019556000601e5534801561006057600080fd5b50615cad80620000716000396000f3fe6080604052600436106101d85760003560e01c806387dbbb3d11610102578063c5f223bf11610095578063d863e41611610064578063d863e416146106b6578063dfc85219146106f3578063fd83a4311461071c578063ff91ab0414610747576101d8565b8063c5f223bf146105e6578063c785bd9914610623578063cf72e7bd1461064c578063d5fb4e1814610675576101d8565b8063a87fe3dd116100d1578063a87fe3dd14610539578063a93ab0b114610576578063ae625e56146105b3578063c1a1668f146105cf576101d8565b806387dbbb3d1461048e5780638a54fcee146104b7578063a1bab447146104e0578063a797f1c714610509576101d8565b8063413ba3021161017a57806375158b701161014957806375158b70146103dc5780637857ef79146104055780637ce7b179146104355780638279241014610465576101d8565b8063413ba30214610324578063415919921461034d5780634fea39c21461037657806364f66c711461039f576101d8565b8063172257c7116101b6578063172257c7146102585780631af8f8c5146102955780632245ae9e146102d257806329e99f07146102fb576101d8565b806302ddffbe146101dd578063053d970c146102065780630d4722f61461022f575b600080fd5b3480156101e957600080fd5b5061020460048036038101906101ff919061432f565b610784565b005b34801561021257600080fd5b5061022d60048036038101906102289190614185565b61085b565b005b34801561023b57600080fd5b5061025660048036038101906102519190613f88565b610a7d565b005b34801561026457600080fd5b5061027f600480360381019061027a919061432f565b610be3565b60405161028c9190615109565b60405180910390f35b3480156102a157600080fd5b506102bc60048036038101906102b79190614556565b610cff565b6040516102c99190615109565b60405180910390f35b3480156102de57600080fd5b506102f960048036038101906102f49190613ea1565b6110ab565b005b34801561030757600080fd5b50610322600480360381019061031d919061432f565b61118a565b005b34801561033057600080fd5b5061034b6004803603810190610346919061432f565b611207565b005b34801561035957600080fd5b50610374600480360381019061036f919061432f565b6112ac565b005b34801561038257600080fd5b5061039d60048036038101906103989190613f1b565b611351565b005b3480156103ab57600080fd5b506103c660048036038101906103c19190614474565b6113fb565b6040516103d39190614f36565b60405180910390f35b3480156103e857600080fd5b5061040360048036038101906103fe9190613f48565b6117e4565b005b61041f600480360381019061041a919061425d565b61193b565b60405161042c9190615109565b60405180910390f35b61044f600480360381019061044a9190614050565b611ca9565b60405161045c9190615109565b60405180910390f35b34801561047157600080fd5b5061048c60048036038101906104879190613ea1565b611d48565b005b34801561049a57600080fd5b506104b560048036038101906104b09190613ece565b611e27565b005b3480156104c357600080fd5b506104de60048036038101906104d99190613ea1565b611ed3565b005b3480156104ec57600080fd5b506105076004803603810190610502919061432f565b611fb2565b005b610523600480360381019061051e91906140d1565b61208b565b6040516105309190615109565b60405180910390f35b34801561054557600080fd5b50610560600480360381019061055b919061435c565b6120e7565b60405161056d9190615109565b60405180910390f35b34801561058257600080fd5b5061059d600480360381019061059891906141e5565b6123e7565b6040516105aa9190614ead565b60405180910390f35b6105cd60048036038101906105c89190614638565b612451565b005b3480156105db57600080fd5b506105e46127d8565b005b3480156105f257600080fd5b5061060d60048036038101906106089190614050565b612897565b60405161061a9190614f87565b60405180910390f35b34801561062f57600080fd5b5061064a6004803603810190610645919061432f565b612a41565b005b34801561065857600080fd5b50610673600480360381019061066e9190613ea1565b612ae1565b005b34801561068157600080fd5b5061069c60048036038101906106979190613ea1565b612bc0565b6040516106ad959493929190614ee3565b60405180910390f35b3480156106c257600080fd5b506106dd60048036038101906106d89190614003565b612c03565b6040516106ea9190615109565b60405180910390f35b3480156106ff57600080fd5b5061071a6004803603810190610715919061432f565b612c2e565b005b34801561072857600080fd5b50610731612dc6565b60405161073e9190615109565b60405180910390f35b34801561075357600080fd5b5061076e60048036038101906107699190614421565b612e87565b60405161077b9190615109565b60405180910390f35b600160009054906101000a900473ffffffffffffffffffffffffffffffffffffffff1673ffffffffffffffffffffffffffffffffffffffff163373ffffffffffffffffffffffffffffffffffffffff16141561081d57806002819055507fafb2b5bfefa5580825b0de810f205cc4f63195be2b7581e3a6d86853cda215a8816040516108109190615109565b60405180910390a1610858565b6040517f08c379a000000000000000000000000000000000000000000000000000000000815260040161084f90614fe9565b60405180910390fd5b50565b600160009054906101000a900473ffffffffffffffffffffffffffffffffffffffff1673ffffffffffffffffffffffffffffffffffffffff163373ffffffffffffffffffffffffffffffffffffffff161415610a3d5780601c84846040516108c4929190614b2f565b9081526020016040518091039020819055506109f583838080601f016020809104026020016040519081016040528093929190818152602001838380828437600081840152601f19601f82011690508083019250505050505050601d805480602002602001604051908101604052809291908181526020016000905b828210156109ec57838290600052602060002001805461095f90615771565b80601f016020809104026020016040519081016040528092919081815260200182805461098b90615771565b80156109d85780601f106109ad576101008083540402835291602001916109d8565b820191906000526020600020905b8154815290600101906020018083116109bb57829003601f168201915b505050505081526020019060010190610940565b505050506123e7565b610a3857601d838390918060018154018082558091505060019003906000526020600020016000909192909192909192909192509190610a369291906139ab565b505b610a78565b6040517f08c379a0000000000000000000000000000000000000000000000000000000008152600401610a6f90614fe9565b60405180910390fd5b505050565b6060806040518060e00160405280886001811115610a9e57610a9d615856565b5b815260200187815260200186815260200183815260200182815260200185815260200184815250600360003373ffffffffffffffffffffffffffffffffffffffff1673ffffffffffffffffffffffffffffffffffffffff16815260200190815260200160002060008201518160000160006101000a81548160ff02191690836001811115610b2f57610b2e615856565b5b021790555060208201518160010155604082015181600201556060820151816003019080519060200190610b64929190613a31565b506080820151816004019080519060200190610b81929190613abb565b5060a0820151816005015560c082015181600601559050507f30f100afd350d3923afbf22d61bb461b018387a905b01935a82fd31739f7ecc8338888888888604051610bd296959493929190614cb6565b60405180910390a150505050505050565b600080600c8381548110610bfa57610bf96158b4565b5b906000526020600020906008020160060160006101000a81548160ff02191690836002811115610c2d57610c2c615856565b5b02179055507f9cf99d589438cb7c5e0d92e45b92b87bcf5a2201479e72e8f31396be4a7505ab3383600c8581548110610c6957610c686158b4565b5b9060005260206000209060080201600201546000604051610c8d9493929190614dd0565b60405180910390a17f20670ef4ff6910e98e7c43650896cc0feeab168b4ca974d0748d31c42706a1e9604051610cc2906150e9565b60405180910390a1610cf8600c8381548110610ce157610ce06158b4565b5b906000526020600020906008020160020154613084565b9050919050565b600080891015610d0e57600080fd5b600c6040518061010001604052808a6009811115610d2f57610d2e615856565b5b815260200189898080601f016020809104026020016040519081016040528093929190818152602001838380828437600081840152601f19601f8201169050808301925050505050505081526020018c815260200187878080601f016020809104026020016040519081016040528093929190818152602001838380828437600081840152601f19601f820116905080830192505050505050508152602001858152602001848152602001600280811115610ded57610dec615856565b5b815260200142815250908060018154018082558091505060019003906000526020600020906008020160009091909190915060008201518160000160006101000a81548160ff02191690836009811115610e4a57610e49615856565b5b02179055506020820151816001019080519060200190610e6b929190613b08565b50604082015181600201556060820151816003019080519060200190610e92929190613b08565b506080820151816004015560a0820151816005015560c08201518160060160006101000a81548160ff02191690836002811115610ed257610ed1615856565b5b021790555060e08201518160070155505060006001600c80549050610ef79190615584565b905080601260008d8152602001908152602001600020819055506001601360008d815260200190815260200160002060006101000a81548160ff0219169083151502179055507fc958f4b8e689bace1e5d4bc03cb4502a1547957e2ae45051374239cfee0f886b33828d8c8c8c8c8c8c8c604051610f7e9a99989796959493929190614d40565b60405180910390a1600073ffffffffffffffffffffffffffffffffffffffff16601a60008c815260200190815260200160002060009054906101000a900473ffffffffffffffffffffffffffffffffffffffff1673ffffffffffffffffffffffffffffffffffffffff161461109a57601a60008b815260200190815260200160002060009054906101000a900473ffffffffffffffffffffffffffffffffffffffff1673ffffffffffffffffffffffffffffffffffffffff16637a4943628b88886040518463ffffffff1660e01b815260040161105d93929190615309565b600060405180830381600087803b15801561107757600080fd5b505af115801561108b573d6000803e3d6000fd5b505050506110988b613084565b505b809150509998505050505050505050565b600460003373ffffffffffffffffffffffffffffffffffffffff1673ffffffffffffffffffffffffffffffffffffffff168152602001908152602001600020600001819080600181540180825580915050600190039060005260206000200160009091909190916101000a81548173ffffffffffffffffffffffffffffffffffffffff021916908373ffffffffffffffffffffffffffffffffffffffff1602179055507fc46f5b1885edcb90bd9c37370760e20924bd0b4815bc3aa0999135f9e7447ba3338260405161117f929190614c03565b60405180910390a150565b600081116111cd576040517f08c379a00000000000000000000000000000000000000000000000000000000081526004016111c490615069565b60405180910390fd5b7ff0ed029e274dabb7636aeed7333cf47bc8c97dd6eb6d8faea6e9bfbd6620bebe816040516111fc9190615109565b60405180910390a150565b600360003373ffffffffffffffffffffffffffffffffffffffff1673ffffffffffffffffffffffffffffffffffffffff1681526020019081526020016000206004018190806001815401808255809150506001900390600052602060002001600090919091909150557fa4afa925b503907dc7699e5423d82b67cb3cce8e083875f0b14ae131ba8852d833826040516112a1929190614d17565b60405180910390a150565b600460003373ffffffffffffffffffffffffffffffffffffffff1673ffffffffffffffffffffffffffffffffffffffff1681526020019081526020016000206002018190806001815401808255809150506001900390600052602060002001600090919091909150557f6addfaf8048be7677397f667c84acb7e875091575bf511939b167e804d13a8fe3382604051611346929190614d17565b60405180910390a150565b7f117173c3f483315f99860ad0cd3da109b9e36f175776c989bee6807ddc7554dd60056040516113819190614f6c565b60405180910390a17fc06e1a5e77fb0f268e7a9d333c44019d6d8bb187b960fa3730205da5fa9a242f816040516113b89190614ec8565b60405180910390a17ff0ed029e274dabb7636aeed7333cf47bc8c97dd6eb6d8faea6e9bfbd6620bebe60016040516113f09190614f51565b60405180910390a150565b60008089101561140a57600080fd5b600060086000600b8d81548110611424576114236158b4565b5b9060005260206000209060030201600101548152602001908152602001600020604051806101000160405290816000820160009054906101000a900473ffffffffffffffffffffffffffffffffffffffff1673ffffffffffffffffffffffffffffffffffffffff1673ffffffffffffffffffffffffffffffffffffffff16815260200160018201548152602001600282015481526020016003820154815260200160048201548152602001600582015481526020016006820154815260200160078201548152505090506001601160008d815260200190815260200160002060006101000a81548160ff021916908315150217905550600d6040518061010001604052808b600981111561153b5761153a615856565b5b81526020018a8a8080601f016020809104026020016040519081016040528093929190818152602001838380828437600081840152601f19601f8201169050808301925050505050505081526020018d815260200188888080601f016020809104026020016040519081016040528093929190818152602001838380828437600081840152601f19601f82011690508083019250505050505050815260200160008152602001600081526020018660048111156115fb576115fa615856565b5b815260200185600181111561161357611612615856565b5b815250908060018154018082558091505060019003906000526020600020906007020160009091909190915060008201518160000160006101000a81548160ff0219169083600981111561166a57611669615856565b5b0217905550602082015181600101908051906020019061168b929190613b08565b506040820151816002015560608201518160030190805190602001906116b2929190613b08565b506080820151816004015560a0820151816005015560c08201518160060160006101000a81548160ff021916908360048111156116f2576116f1615856565b5b021790555060e08201518160060160016101000a81548160ff0219169083600181111561172257611721615856565b5b021790555050507fe9c156d5f11284ab5e2b9cb4e765d73089f8574ffdf9aacd1d25d764f669f18e8b336001600d8054905061175e9190615584565b86888e8e8e8e8e60008c608001516040516117849c9b9a99989796959493929190615124565b60405180910390a1600260048111156117a05761179f615856565b5b8460048111156117b3576117b2615856565b5b14156117c8576117c28b613401565b506117d3565b6117d18b613084565b505b829150509998505050505050505050565b60608060606040518060a0016040528084815260200183815260200182815260200186600181111561181957611818615856565b5b815260200185815250600460003373ffffffffffffffffffffffffffffffffffffffff1673ffffffffffffffffffffffffffffffffffffffff168152602001908152602001600020600082015181600001908051906020019061187d929190613a31565b50602082015181600101908051906020019061189a929190613a31565b5060408201518160020190805190602001906118b7929190613abb565b5060608201518160030160006101000a81548160ff021916908360018111156118e3576118e2615856565b5b0217905550608082015181600401559050507fc1fa38743bb572e5e75169e44082ca0108a86cbce71a37e7590b45ace4ec80c933868660005460405161192c9493929190614c71565b60405180910390a15050505050565b600080601c8a60405161194e9190614b48565b9081526020016040518091039020541161199d576040517f08c379a000000000000000000000000000000000000000000000000000000000815260040161199490615049565b60405180910390fd5b601c896040516119ad9190614b48565b9081526020016040518091039020543410156119fe576040517f08c379a00000000000000000000000000000000000000000000000000000000081526004016119f5906150a9565b60405180910390fd5b6000600a60003373ffffffffffffffffffffffffffffffffffffffff1673ffffffffffffffffffffffffffffffffffffffff16815260200190815260200160002060008a81526020019081526020016000205490506000811415611acf57600754905060076000815480929190611a74906157d4565b919050555080600a60003373ffffffffffffffffffffffffffffffffffffffff1673ffffffffffffffffffffffffffffffffffffffff16815260200190815260200160002060008b8152602001908152602001600020819055505b60006040518061010001604052803373ffffffffffffffffffffffffffffffffffffffff1681526020013481526020018a8152602001898152602001601c8d604051611b1b9190614b48565b9081526020016040518091039020548152602001878152602001868152602001858152509050806008600084815260200190815260200160002060008201518160000160006101000a81548173ffffffffffffffffffffffffffffffffffffffff021916908373ffffffffffffffffffffffffffffffffffffffff1602179055506020820151816001015560408201518160020155606082015181600301556080820151816004015560a0820151816005015560c0820151816006015560e082015181600701559050506001600e600084815260200190815260200160002060006101000a81548160ff0219169083151502179055507f9306115efe7bad07bc21e212f2404b33e7376f164de102ec5e1e1b2938328db7828b338c8c8c8c8c348d604051611c529a99989796959493929190615364565b60405180910390a17f7e69a0d958a5252709f48635ae2d7514bc34ffc5f64e5b2aa70336d3e8bfcdf23330346000604051611c909493929190614c2c565b60405180910390a1819250505098975050505050505050565b6000611d3e85858585601b805480602002602001604051908101604052809291908181526020018280548015611d3457602002820191906000526020600020905b8160009054906101000a900473ffffffffffffffffffffffffffffffffffffffff1673ffffffffffffffffffffffffffffffffffffffff1681526020019060010190808311611cea575b5050505050613658565b9050949350505050565b600360003373ffffffffffffffffffffffffffffffffffffffff1673ffffffffffffffffffffffffffffffffffffffff168152602001908152602001600020600301819080600181540180825580915050600190039060005260206000200160009091909190916101000a81548173ffffffffffffffffffffffffffffffffffffffff021916908373ffffffffffffffffffffffffffffffffffffffff1602179055507f67d4e0df369cb5dee1cb58b6d75040efd1ee99797e4aa4be77057de2830d17693382604051611e1c929190614c03565b60405180910390a150565b600160009054906101000a900473ffffffffffffffffffffffffffffffffffffffff1673ffffffffffffffffffffffffffffffffffffffff163373ffffffffffffffffffffffffffffffffffffffff161415611e94578181601b9190611e8e929190613b8e565b50611ecf565b6040517f08c379a0000000000000000000000000000000000000000000000000000000008152600401611ec690614fe9565b60405180910390fd5b5050565b600560003373ffffffffffffffffffffffffffffffffffffffff1673ffffffffffffffffffffffffffffffffffffffff168152602001908152602001600020600001819080600181540180825580915050600190039060005260206000200160009091909190916101000a81548173ffffffffffffffffffffffffffffffffffffffff021916908373ffffffffffffffffffffffffffffffffffffffff1602179055507f14a79e8259e0076c5c8c81b13bbe7e12e248150c95f1ff3d9e0f2b377f8a15f23382604051611fa7929190614c03565b60405180910390a150565b600160009054906101000a900473ffffffffffffffffffffffffffffffffffffffff1673ffffffffffffffffffffffffffffffffffffffff163373ffffffffffffffffffffffffffffffffffffffff16141561204d57806000819055507fc3e81bef45eef27d5efd5d8de49b1398d66e449912912cf50fffdffd283e19e06000546040516120409190615109565b60405180910390a1612088565b6040517f08c379a000000000000000000000000000000000000000000000000000000000815260040161207f90614fe9565b60405180910390fd5b50565b60006120db87878787878780806020026020016040519081016040528093929190818152602001838360200280828437600081840152601f19601f82011690508083019250505050505050613658565b90509695505050505050565b600080600a60003373ffffffffffffffffffffffffffffffffffffffff1673ffffffffffffffffffffffffffffffffffffffff168152602001908152602001600020600089815260200190815260200160002054905060008114156121b95760075490506007600081548092919061215e906157d4565b919050555080600a60003373ffffffffffffffffffffffffffffffffffffffff1673ffffffffffffffffffffffffffffffffffffffff16815260200190815260200160002060008a8152602001908152602001600020819055505b60006040518061010001604052803373ffffffffffffffffffffffffffffffffffffffff16815260200160008152602001600081526020018981526020018873ffffffffffffffffffffffffffffffffffffffff16815260200187815260200186600181111561222c5761222b615856565b5b8152602001858152509050806009600084815260200190815260200160002060008201518160000160006101000a81548173ffffffffffffffffffffffffffffffffffffffff021916908373ffffffffffffffffffffffffffffffffffffffff160217905550602082015181600101556040820151816002015560608201518160030190805190602001906122c2929190613b08565b5060808201518160040160006101000a81548173ffffffffffffffffffffffffffffffffffffffff021916908373ffffffffffffffffffffffffffffffffffffffff16021790555060a0820151816005015560c08201518160060160006101000a81548160ff0219169083600181111561233f5761233e615856565b5b021790555060e0820151816007019080519060200190612360929190613b08565b509050506001600f600084815260200190815260200160002060006101000a81548160ff0219169083151502179055507fb08439994d9143544b8ae8aa0550882b0d882037947cab0dfa67fdfbe68b79ed8233888b8b8a6000808c6040516123d0999897969594939291906151d2565b60405180910390a181925050509695505050505050565b600080600090505b8251811015612445578380519060200120838281518110612413576124126158b4565b5b602002602001015180519060200120141561243257600191505061244b565b808061243d906157d4565b9150506123ef565b50600090505b92915050565b612459612dc6565b34101561249b576040517f08c379a000000000000000000000000000000000000000000000000000000000815260040161249290615009565b60405180910390fd5b6000600460003373ffffffffffffffffffffffffffffffffffffffff1673ffffffffffffffffffffffffffffffffffffffff16815260200190815260200160002060000180549050141561251f577f20670ef4ff6910e98e7c43650896cc0feeab168b4ca974d0748d31c42706a1e9604051612516906150c9565b60405180910390a15b60008054858761252f919061552a565b8a8c61253b919061552a565b61254591906154d4565b61254f919061552a565b90508034116125fc577f20670ef4ff6910e98e7c43650896cc0feeab168b4ca974d0748d31c42706a1e960405161258590614fc9565b60405180910390a17ff0ed029e274dabb7636aeed7333cf47bc8c97dd6eb6d8faea6e9bfbd6620bebe346040516125bc9190615109565b60405180910390a17ff0ed029e274dabb7636aeed7333cf47bc8c97dd6eb6d8faea6e9bfbd6620bebe816040516125f39190615109565b60405180910390a15b60066040518061014001604052803373ffffffffffffffffffffffffffffffffffffffff1681526020013481526020018c81526020018b81526020018a81526020018981526020018881526020018781526020018681526020018581525090806001815401808255809150506001900390600052602060002090600a020160009091909190915060008201518160000160006101000a81548173ffffffffffffffffffffffffffffffffffffffff021916908373ffffffffffffffffffffffffffffffffffffffff1602179055506020820151816001015560408201518160020155606082015181600301556080820151816004015560a0820151816005015560c0820151816006015560e082015181600701556101008201518160080155610120820151816009015550506000600160068054905061273c9190615584565b905060008390507f0dbc425a2857617d2e3336b85e820c082e6403f272bdfc7b2805119a0be4412182338e8e8e8e8e8e348a6040516127849a9998979695949392919061526d565b60405180910390a17f7e69a0d958a5252709f48635ae2d7514bc34ffc5f64e5b2aa70336d3e8bfcdf233303460016040516127c29493929190614c2c565b60405180910390a1505050505050505050505050565b606060405180604001604052808281526020016000815250600560003373ffffffffffffffffffffffffffffffffffffffff1673ffffffffffffffffffffffffffffffffffffffff168152602001908152602001600020600082015181600001908051906020019061284b929190613a31565b50602082015181600101559050507f4599183a5415a1a36544283668387752f2b7459b061d4c8434642289d6146a9e3360005460405161288c929190614d17565b60405180910390a150565b6060600061295486868080601f016020809104026020016040519081016040528093929190818152602001838380828437600081840152601f19601f820116905080830192505050505050506040518060400160405280600181526020017f22000000000000000000000000000000000000000000000000000000000000008152506040518060400160405280600281526020017f5c220000000000000000000000000000000000000000000000000000000000008152506137cf565b90506000612a1185858080601f016020809104026020016040519081016040528093929190818152602001838380828437600081840152601f19601f820116905080830192505050505050506040518060400160405280600181526020017f22000000000000000000000000000000000000000000000000000000000000008152506040518060400160405280600281526020017f5c220000000000000000000000000000000000000000000000000000000000008152506137cf565b90508181604051602001612a26929190614bbe565b60405160208183030381529060405292505050949350505050565b600160009054906101000a900473ffffffffffffffffffffffffffffffffffffffff1673ffffffffffffffffffffffffffffffffffffffff163373ffffffffffffffffffffffffffffffffffffffff161415612aa35780601e81905550612ade565b6040517f08c379a0000000000000000000000000000000000000000000000000000000008152600401612ad590614fe9565b60405180910390fd5b50565b600460003373ffffffffffffffffffffffffffffffffffffffff1673ffffffffffffffffffffffffffffffffffffffff168152602001908152602001600020600101819080600181540180825580915050600190039060005260206000200160009091909190916101000a81548173ffffffffffffffffffffffffffffffffffffffff021916908373ffffffffffffffffffffffffffffffffffffffff1602179055507fc8dca6a50f889635c514a90f99165d542d96eb943731beabec830ec3110ace733382604051612bb5929190614c03565b60405180910390a150565b60036020528060005260406000206000915090508060000160009054906101000a900460ff16908060010154908060020154908060050154908060060154905085565b6000601c8383604051612c17929190614b2f565b908152602001604051809103902054905092915050565b6001600c8281548110612c4457612c436158b4565b5b906000526020600020906008020160060160006101000a81548160ff02191690836002811115612c7757612c76615856565b5b0217905550600160106000600c8481548110612c9657612c956158b4565b5b906000526020600020906008020160020154815260200190815260200160002060006101000a81548160ff0219169083151502179055507f9cf99d589438cb7c5e0d92e45b92b87bcf5a2201479e72e8f31396be4a7505ab3382600c8481548110612d0457612d036158b4565b5b9060005260206000209060080201600201546001604051612d289493929190614e15565b60405180910390a17f20670ef4ff6910e98e7c43650896cc0feeab168b4ca974d0748d31c42706a1e9604051612d5d90614fa9565b60405180910390a17f6e377930a82feda820d86166d6ed1dcbb8cb48305b1d20048584586cb1d424af33600c8381548110612d9b57612d9a6158b4565b5b906000526020600020906008020160020154604051612dbb929190614d17565b60405180910390a150565b6000806000905060005b601d80549050811015612e725781601c601d8381548110612df457612df36158b4565b5b90600052602060002001604051612e0b9190614ba7565b9081526020016040518091039020541115612e5f57601c601d8281548110612e3657612e356158b4565b5b90600052602060002001604051612e4d9190614ba7565b90815260200160405180910390205491505b8080612e6a906157d4565b915050612dd0565b50601e5481612e81919061552a565b91505090565b6000600b60405180606001604052808581526020018681526020018473ffffffffffffffffffffffffffffffffffffffff168152509080600181540180825580915050600190039060005260206000209060030201600090919091909150600082015181600001556020820151816001015560408201518160020160006101000a81548173ffffffffffffffffffffffffffffffffffffffff021916908373ffffffffffffffffffffffffffffffffffffffff160217905550505060006001600b80549050612f569190615584565b905060016014600087815260200190815260200160002060006101000a81548160ff02191690831515021790555060016015600086815260200190815260200160002060006101000a81548160ff021916908315150217905550600060068581548110612fc657612fc56158b4565b5b90600052602060002090600a0201600801546008600088815260200190815260200160002060070154612ff991906154d4565b90507f7e69a0d958a5252709f48635ae2d7514bc34ffc5f64e5b2aa70336d3e8bfcdf230338360086040516130319493929190614c2c565b60405180910390a17fb30a5088883496975973e21a454aafabbe1548041f5c17c2f2e535532f82fbed3383888888604051613070959493929190614e5a565b60405180910390a181925050509392505050565b60008015156018600084815260200190815260200160002060009054906101000a900460ff161515146130ec576040517f08c379a00000000000000000000000000000000000000000000000000000000081526004016130e390615089565b60405180910390fd5b60006006600b8481548110613104576131036158b4565b5b90600052602060002090600302016000015481548110613127576131266158b4565b5b90600052602060002090600a0201604051806101400160405290816000820160009054906101000a900473ffffffffffffffffffffffffffffffffffffffff1673ffffffffffffffffffffffffffffffffffffffff1673ffffffffffffffffffffffffffffffffffffffff16815260200160018201548152602001600282015481526020016003820154815260200160048201548152602001600582015481526020016006820154815260200160078201548152602001600882015481526020016009820154815250509050600060086000600b868154811061320d5761320c6158b4565b5b9060005260206000209060030201600101548152602001908152602001600020604051806101000160405290816000820160009054906101000a900473ffffffffffffffffffffffffffffffffffffffff1673ffffffffffffffffffffffffffffffffffffffff1673ffffffffffffffffffffffffffffffffffffffff168152602001600182015481526020016002820154815260200160038201548152602001600482015481526020016005820154815260200160068201548152602001600782015481525050905060016018600086815260200190815260200160002060006101000a81548160ff021916908315150217905550816000015173ffffffffffffffffffffffffffffffffffffffff166108fc8260800151846020015161333591906154d4565b9081150290604051600060405180830381858888f19350505050158015613360573d6000803e3d6000fd5b507f30139f0bfbfc8bbba69979f515a178952806079af30fba4bc2e2e03e997769fc84826080015160405161339692919061533b565b60405180910390a17f7e69a0d958a5252709f48635ae2d7514bc34ffc5f64e5b2aa70336d3e8bfcdf2308360000151836080015185602001516133d991906154d4565b60066040516133eb9493929190614c2c565b60405180910390a1806080015192505050919050565b60008015156018600084815260200190815260200160002060009054906101000a900460ff16151514613469576040517f08c379a000000000000000000000000000000000000000000000000000000000815260040161346090615089565b60405180910390fd5b600060086000600b8581548110613483576134826158b4565b5b9060005260206000209060030201600101548152602001908152602001600020604051806101000160405290816000820160009054906101000a900473ffffffffffffffffffffffffffffffffffffffff1673ffffffffffffffffffffffffffffffffffffffff1673ffffffffffffffffffffffffffffffffffffffff168152602001600182015481526020016002820154815260200160038201548152602001600482015481526020016005820154815260200160068201548152602001600782015481525050905060016018600085815260200190815260200160002060006101000a81548160ff021916908315150217905550806000015173ffffffffffffffffffffffffffffffffffffffff166108fc82602001519081150290604051600060405180830381858888f193505050501580156135c7573d6000803e3d6000fd5b507f30139f0bfbfc8bbba69979f515a178952806079af30fba4bc2e2e03e997769fc8382608001516040516135fd92919061533b565b60405180910390a17f7e69a0d958a5252709f48635ae2d7514bc34ffc5f64e5b2aa70336d3e8bfcdf2308260000151836020015160056040516136439493929190614c2c565b60405180910390a18060800151915050919050565b60008082511161369d576040517f08c379a000000000000000000000000000000000000000000000000000000000815260040161369490615029565b60405180910390fd5b6136a56127d8565b6136c9826000815181106136bc576136bb6158b4565b5b6020026020010151611ed3565b601960008154809291906136dc906157d4565b9190505550600061374187878080601f016020809104026020016040519081016040528093929190818152602001838380828437600081840152601f19601f8201169050808301925050505050505060195460018060018064275531d374600161193b565b905061376f60195460405180602001604052806000815250600080600061376a8d8d8d8d612897565b6120e7565b5033601a600083815260200190815260200160002060006101000a81548173ffffffffffffffffffffffffffffffffffffffff021916908373ffffffffffffffffffffffffffffffffffffffff1602179055508091505095945050505050565b6060600084905060008490506000849050600060405180602001604052806000815250905060005b845181101561399c5760006001905060005b8551811080156138165750815b156138dc578651818461382991906154d4565b1015806138bf5750858181518110613844576138436158b4565b5b602001015160f81c60f81b7effffffffffffffffffffffffffffffffffffffffffffffffffffffffffffff191687828561387e91906154d4565b8151811061388f5761388e6158b4565b5b602001015160f81c60f81b7effffffffffffffffffffffffffffffffffffffffffffffffffffffffffffff191614155b156138c957600091505b80806138d4906157d4565b915050613809565b5080156139275782846040516020016138f6929190614b5f565b6040516020818303038152906040529250600185516139159190615584565b8261392091906154d4565b9150613988565b8286838151811061393b5761393a6158b4565b5b602001015160f81c60f81b6040516020016139569190614b14565b604051602081830303815290604052604051602001613976929190614b83565b60405160208183030381529060405292505b508080613994906157d4565b9150506137f7565b50809450505050509392505050565b8280546139b790615771565b90600052602060002090601f0160209004810192826139d95760008555613a20565b82601f106139f257803560ff1916838001178555613a20565b82800160010185558215613a20579182015b82811115613a1f578235825591602001919060010190613a04565b5b509050613a2d9190613c2e565b5090565b828054828255906000526020600020908101928215613aaa579160200282015b82811115613aa95782518260006101000a81548173ffffffffffffffffffffffffffffffffffffffff021916908373ffffffffffffffffffffffffffffffffffffffff16021790555091602001919060010190613a51565b5b509050613ab79190613c2e565b5090565b828054828255906000526020600020908101928215613af7579160200282015b82811115613af6578251825591602001919060010190613adb565b5b509050613b049190613c2e565b5090565b828054613b1490615771565b90600052602060002090601f016020900481019282613b365760008555613b7d565b82601f10613b4f57805160ff1916838001178555613b7d565b82800160010185558215613b7d579182015b82811115613b7c578251825591602001919060010190613b61565b5b509050613b8a9190613c2e565b5090565b828054828255906000526020600020908101928215613c1d579160200282015b82811115613c1c57823573ffffffffffffffffffffffffffffffffffffffff168260006101000a81548173ffffffffffffffffffffffffffffffffffffffff021916908373ffffffffffffffffffffffffffffffffffffffff16021790555091602001919060010190613bae565b5b509050613c2a9190613c2e565b5090565b5b80821115613c47576000816000905550600101613c2f565b5090565b6000613c5e613c5984615425565b615400565b90508083825260208201905082856020860282011115613c8157613c8061591c565b5b60005b85811015613ccf57813567ffffffffffffffff811115613ca757613ca6615917565b5b808601613cb48982613e5e565b85526020850194506020840193505050600181019050613c84565b5050509392505050565b6000613cec613ce784615451565b615400565b905082815260208101848484011115613d0857613d07615921565b5b613d1384828561572f565b509392505050565b600081359050613d2a81615c09565b92915050565b60008083601f840112613d4657613d45615917565b5b8235905067ffffffffffffffff811115613d6357613d62615912565b5b602083019150836020820283011115613d7f57613d7e61591c565b5b9250929050565b600082601f830112613d9b57613d9a615917565b5b8135613dab848260208601613c4b565b91505092915050565b600081359050613dc381615c20565b92915050565b600081359050613dd881615c30565b92915050565b600081359050613ded81615c40565b92915050565b600081359050613e0281615c50565b92915050565b60008083601f840112613e1e57613e1d615917565b5b8235905067ffffffffffffffff811115613e3b57613e3a615912565b5b602083019150836001820283011115613e5757613e5661591c565b5b9250929050565b600082601f830112613e7357613e72615917565b5b8135613e83848260208601613cd9565b91505092915050565b600081359050613e9b81615c60565b92915050565b600060208284031215613eb757613eb661592b565b5b6000613ec584828501613d1b565b91505092915050565b60008060208385031215613ee557613ee461592b565b5b600083013567ffffffffffffffff811115613f0357613f02615926565b5b613f0f85828601613d30565b92509250509250929050565b600060208284031215613f3157613f3061592b565b5b6000613f3f84828501613db4565b91505092915050565b60008060408385031215613f5f57613f5e61592b565b5b6000613f6d85828601613db4565b9250506020613f7e85828601613e8c565b9150509250929050565b600080600080600060a08688031215613fa457613fa361592b565b5b6000613fb288828901613db4565b9550506020613fc388828901613e8c565b9450506040613fd488828901613e8c565b9350506060613fe588828901613e8c565b9250506080613ff688828901613e8c565b9150509295509295909350565b6000806020838503121561401a5761401961592b565b5b600083013567ffffffffffffffff81111561403857614037615926565b5b61404485828601613e08565b92509250509250929050565b6000806000806040858703121561406a5761406961592b565b5b600085013567ffffffffffffffff81111561408857614087615926565b5b61409487828801613e08565b9450945050602085013567ffffffffffffffff8111156140b7576140b6615926565b5b6140c387828801613e08565b925092505092959194509250565b600080600080600080606087890312156140ee576140ed61592b565b5b600087013567ffffffffffffffff81111561410c5761410b615926565b5b61411889828a01613e08565b9650965050602087013567ffffffffffffffff81111561413b5761413a615926565b5b61414789828a01613e08565b9450945050604087013567ffffffffffffffff81111561416a57614169615926565b5b61417689828a01613d30565b92509250509295509295509295565b60008060006040848603121561419e5761419d61592b565b5b600084013567ffffffffffffffff8111156141bc576141bb615926565b5b6141c886828701613e08565b935093505060206141db86828701613e8c565b9150509250925092565b600080604083850312156141fc576141fb61592b565b5b600083013567ffffffffffffffff81111561421a57614219615926565b5b61422685828601613e5e565b925050602083013567ffffffffffffffff81111561424757614246615926565b5b61425385828601613d86565b9150509250929050565b600080600080600080600080610100898b03121561427e5761427d61592b565b5b600089013567ffffffffffffffff81111561429c5761429b615926565b5b6142a88b828c01613e5e565b98505060206142b98b828c01613e8c565b97505060406142ca8b828c01613e8c565b96505060606142db8b828c01613e8c565b95505060806142ec8b828c01613e8c565b94505060a06142fd8b828c01613e8c565b93505060c061430e8b828c01613e8c565b92505060e061431f8b828c01613e8c565b9150509295985092959890939650565b6000602082840312156143455761434461592b565b5b600061435384828501613e8c565b91505092915050565b60008060008060008060c087890312156143795761437861592b565b5b600061438789828a01613e8c565b965050602087013567ffffffffffffffff8111156143a8576143a7615926565b5b6143b489828a01613e5e565b95505060406143c589828a01613d1b565b94505060606143d689828a01613e8c565b93505060806143e789828a01613db4565b92505060a087013567ffffffffffffffff81111561440857614407615926565b5b61441489828a01613e5e565b9150509295509295509295565b60008060006060848603121561443a5761443961592b565b5b600061444886828701613e8c565b935050602061445986828701613e8c565b925050604061446a86828701613d1b565b9150509250925092565b600080600080600080600080600060e08a8c0312156144965761449561592b565b5b60006144a48c828d01613e8c565b99505060206144b58c828d01613e8c565b98505060406144c68c828d01613dde565b97505060608a013567ffffffffffffffff8111156144e7576144e6615926565b5b6144f38c828d01613e08565b965096505060808a013567ffffffffffffffff81111561451657614515615926565b5b6145228c828d01613e08565b945094505060a06145358c828d01613df3565b92505060c06145468c828d01613dc9565b9150509295985092959850929598565b600080600080600080600080600060e08a8c0312156145785761457761592b565b5b60006145868c828d01613e8c565b99505060206145978c828d01613e8c565b98505060406145a88c828d01613dde565b97505060608a013567ffffffffffffffff8111156145c9576145c8615926565b5b6145d58c828d01613e08565b965096505060808a013567ffffffffffffffff8111156145f8576145f7615926565b5b6146048c828d01613e08565b945094505060a06146178c828d01613e8c565b92505060c06146288c828d01613e8c565b9150509295985092959850929598565b60008060008060008060008060006101208a8c03121561465b5761465a61592b565b5b60006146698c828d01613e8c565b995050602061467a8c828d01613e8c565b985050604061468b8c828d01613e8c565b975050606061469c8c828d01613e8c565b96505060806146ad8c828d01613e8c565b95505060a06146be8c828d01613e8c565b94505060c06146cf8c828d01613e8c565b93505060e06146e08c828d01613e8c565b9250506101006146f28c828d01613e8c565b9150509295985092959850929598565b61470b816155b8565b82525050565b61471a816155ca565b82525050565b61473161472c826155d6565b61581d565b82525050565b600061474282615497565b61474c81856154ad565b935061475c81856020860161573e565b80840191505092915050565b6147718161569f565b82525050565b614780816156b1565b82525050565b61478f816156c3565b82525050565b61479e816156d5565b82525050565b6147ad816156e7565b82525050565b6147bc816156f9565b82525050565b6147cb8161570b565b82525050565b6147da8161571d565b82525050565b60006147ec83856154b8565b93506147f983858461572f565b61480283615930565b840190509392505050565b600061481983856154c9565b935061482683858461572f565b82840190509392505050565b600061483d826154a2565b61484781856154b8565b935061485781856020860161573e565b61486081615930565b840191505092915050565b6000614876826154a2565b61488081856154c9565b935061489081856020860161573e565b80840191505092915050565b600081546148a981615771565b6148b381866154c9565b945060018216600081146148ce57600181146148df57614912565b60ff19831686528186019350614912565b6148e885615482565b60005b8381101561490a578154818901526001820191506020810190506148eb565b838801955050505b50505092915050565b6000614928600f836154b8565b915061493382615941565b602082019050919050565b600061494b6019836154b8565b91506149568261596a565b602082019050919050565b600061496e6013836154b8565b915061497982615993565b602082019050919050565b60006149916035836154b8565b915061499c826159bc565b604082019050919050565b60006149b46015836154b8565b91506149bf82615a0b565b602082019050919050565b60006149d76002836154c9565b91506149e282615a34565b600282019050919050565b60006149fa6010836154b8565b9150614a0582615a5d565b602082019050919050565b6000614a1d600e836154c9565b9150614a2882615a86565b600e82019050919050565b6000614a40601d836154b8565b9150614a4b82615aaf565b602082019050919050565b6000614a63601d836154b8565b9150614a6e82615ad8565b602082019050919050565b6000614a86600e836154c9565b9150614a9182615b01565b600e82019050919050565b6000614aa9601d836154b8565b9150614ab482615b2a565b602082019050919050565b6000614acc6013836154b8565b9150614ad782615b53565b602082019050919050565b6000614aef600f836154b8565b9150614afa82615b7c565b602082019050919050565b614b0e81615681565b82525050565b6000614b208284614720565b60018201915081905092915050565b6000614b3c82848661480d565b91508190509392505050565b6000614b54828461486b565b915081905092915050565b6000614b6b828561486b565b9150614b778284614737565b91508190509392505050565b6000614b8f828561486b565b9150614b9b828461486b565b91508190509392505050565b6000614bb3828461489c565b915081905092915050565b6000614bc982614a10565b9150614bd5828561486b565b9150614be082614a79565b9150614bec828461486b565b9150614bf7826149ca565b91508190509392505050565b6000604082019050614c186000830185614702565b614c256020830184614702565b9392505050565b6000608082019050614c416000830187614702565b614c4e6020830186614702565b614c5b6040830185614b05565b614c686060830184614777565b95945050505050565b6000608082019050614c866000830187614702565b614c936020830186614768565b614ca06040830185614b05565b614cad6060830184614b05565b95945050505050565b600060c082019050614ccb6000830189614702565b614cd86020830188614768565b614ce56040830187614b05565b614cf26060830186614b05565b614cff6080830185614b05565b614d0c60a0830184614b05565b979650505050505050565b6000604082019050614d2c6000830185614702565b614d396020830184614b05565b9392505050565b600061010082019050614d56600083018d614702565b614d63602083018c614b05565b614d70604083018b614b05565b614d7d606083018a614795565b8181036080830152614d9081888a6147e0565b905081810360a0830152614da58186886147e0565b9050614db460c0830185614b05565b614dc160e0830184614b05565b9b9a5050505050505050505050565b6000608082019050614de56000830187614702565b614df26020830186614b05565b614dff6040830185614b05565b614e0c60608301846147b3565b95945050505050565b6000608082019050614e2a6000830187614702565b614e376020830186614b05565b614e446040830185614b05565b614e5160608301846147c2565b95945050505050565b600060a082019050614e6f6000830188614702565b614e7c6020830187614b05565b614e896040830186614b05565b614e966060830185614b05565b614ea36080830184614702565b9695505050505050565b6000602082019050614ec26000830184614711565b92915050565b6000602082019050614edd6000830184614768565b92915050565b600060a082019050614ef86000830188614768565b614f056020830187614b05565b614f126040830186614b05565b614f1f6060830185614b05565b614f2c6080830184614b05565b9695505050505050565b6000602082019050614f4b6000830184614786565b92915050565b6000602082019050614f6660008301846147c2565b92915050565b6000602082019050614f8160008301846147d1565b92915050565b60006020820190508181036000830152614fa18184614832565b905092915050565b60006020820190508181036000830152614fc28161491b565b9050919050565b60006020820190508181036000830152614fe28161493e565b9050919050565b6000602082019050818103600083015261500281614961565b9050919050565b6000602082019050818103600083015261502281614984565b9050919050565b60006020820190508181036000830152615042816149a7565b9050919050565b60006020820190508181036000830152615062816149ed565b9050919050565b6000602082019050818103600083015261508281614a33565b9050919050565b600060208201905081810360008301526150a281614a56565b9050919050565b600060208201905081810360008301526150c281614a9c565b9050919050565b600060208201905081810360008301526150e281614abf565b9050919050565b6000602082019050818103600083015261510281614ae2565b9050919050565b600060208201905061511e6000830184614b05565b92915050565b60006101408201905061513a600083018f614b05565b615147602083018e614702565b615154604083018d614b05565b615161606083018c614786565b61516e608083018b6147a4565b61517b60a083018a614795565b81810360c083015261518e81888a6147e0565b905081810360e08301526151a38186886147e0565b90506151b36101008301856147b3565b6151c1610120830184614b05565b9d9c50505050505050505050505050565b6000610120820190506151e8600083018c614b05565b6151f5602083018b614702565b615202604083018a614b05565b81810360608301526152148189614832565b90506152236080830188614702565b61523060a0830187614768565b61523d60c08301866147b3565b61524a60e08301856147b3565b81810361010083015261525d8184614832565b90509a9950505050505050505050565b600061014082019050615283600083018d614b05565b615290602083018c614702565b61529d604083018b614b05565b6152aa606083018a614b05565b6152b76080830189614b05565b6152c460a0830188614b05565b6152d160c0830187614b05565b6152de60e0830186614b05565b6152ec610100830185614b05565b6152fa610120830184614b05565b9b9a5050505050505050505050565b600060408201905061531e6000830186614b05565b81810360208301526153318184866147e0565b9050949350505050565b60006040820190506153506000830185614b05565b61535d6020830184614b05565b9392505050565b60006101408201905061537a600083018d614b05565b615387602083018c614b05565b615394604083018b614702565b6153a1606083018a614b05565b6153ae6080830189614b05565b6153bb60a0830188614b05565b6153c860c0830187614b05565b6153d560e0830186614b05565b6153e3610100830185614b05565b6153f1610120830184614b05565b9b9a5050505050505050505050565b600061540a61541b565b905061541682826157a3565b919050565b6000604051905090565b600067ffffffffffffffff8211156154405761543f6158e3565b5b602082029050602081019050919050565b600067ffffffffffffffff82111561546c5761546b6158e3565b5b61547582615930565b9050602081019050919050565b60008190508160005260206000209050919050565b600081519050919050565b600081519050919050565b600081905092915050565b600082825260208201905092915050565b600081905092915050565b60006154df82615681565b91506154ea83615681565b9250827fffffffffffffffffffffffffffffffffffffffffffffffffffffffffffffffff0382111561551f5761551e615827565b5b828201905092915050565b600061553582615681565b915061554083615681565b9250817fffffffffffffffffffffffffffffffffffffffffffffffffffffffffffffffff048311821515161561557957615578615827565b5b828202905092915050565b600061558f82615681565b915061559a83615681565b9250828210156155ad576155ac615827565b5b828203905092915050565b60006155c382615661565b9050919050565b60008115159050919050565b60007fff0000000000000000000000000000000000000000000000000000000000000082169050919050565b600081905061561082615ba5565b919050565b600081905061562382615bb9565b919050565b600081905061563682615bcd565b919050565b600081905061564982615be1565b919050565b600081905061565c82615bf5565b919050565b600073ffffffffffffffffffffffffffffffffffffffff82169050919050565b6000819050919050565b600067ffffffffffffffff82169050919050565b60006156aa82615602565b9050919050565b60006156bc82615615565b9050919050565b60006156ce82615628565b9050919050565b60006156e08261563b565b9050919050565b60006156f28261564e565b9050919050565b600061570482615681565b9050919050565b600061571682615681565b9050919050565b60006157288261568b565b9050919050565b82818337600083830152505050565b60005b8381101561575c578082015181840152602081019050615741565b8381111561576b576000848401525b50505050565b6000600282049050600182168061578957607f821691505b6020821081141561579d5761579c615885565b5b50919050565b6157ac82615930565b810181811067ffffffffffffffff821117156157cb576157ca6158e3565b5b80604052505050565b60006157df82615681565b91507fffffffffffffffffffffffffffffffffffffffffffffffffffffffffffffffff82141561581257615811615827565b5b600182019050919050565b6000819050919050565b7f4e487b7100000000000000000000000000000000000000000000000000000000600052601160045260246000fd5b7f4e487b7100000000000000000000000000000000000000000000000000000000600052602160045260246000fd5b7f4e487b7100000000000000000000000000000000000000000000000000000000600052602260045260246000fd5b7f4e487b7100000000000000000000000000000000000000000000000000000000600052603260045260246000fd5b7f4e487b7100000000000000000000000000000000000000000000000000000000600052604160045260246000fd5b600080fd5b600080fd5b600080fd5b600080fd5b600080fd5b600080fd5b6000601f19601f8301169050919050565b7f726573756c742072656a65637465640000000000000000000000000000000000600082015250565b7f6d73672e76616c7565203c3d206465706f73697456616c756500000000000000600082015250565b7f596f752063616e6e6f742063616c6c206d652100000000000000000000000000600082015250565b7f596f75206e65656420746f206465706f736974206d6f7265206d6f6e6579207460008201527f6f206f666665722074686973207265736f757263650000000000000000000000602082015250565b7f4e6f206d65646961746f72732070726f76696465640000000000000000000000600082015250565b7f227d000000000000000000000000000000000000000000000000000000000000600082015250565b7f4d6f64756c65206e6f7420666f756e6400000000000000000000000000000000600082015250565b7f7b2274656d706c617465223a2022000000000000000000000000000000000000600082015250565b7f546869732073686f756c642062652067726561746572207468616e2030000000600082015250565b7f54686973206d6174636820697320616c726561647920636c6f7365642e000000600082015250565b7f222c2022706172616d73223a2022000000000000000000000000000000000000600082015250565b7f4e6f7420656e6f7567682066756e64732073656e7420666f72206a6f62000000600082015250565b7f747275737465644d65646961746f72733d3d3000000000000000000000000000600082015250565b7f726573756c742061636365707465640000000000000000000000000000000000600082015250565b60028110615bb657615bb5615856565b5b50565b600a8110615bca57615bc9615856565b5b50565b60028110615bde57615bdd615856565b5b50565b600a8110615bf257615bf1615856565b5b50565b60058110615c0657615c05615856565b5b50565b615c12816155b8565b8114615c1d57600080fd5b50565b60028110615c2d57600080fd5b50565b60028110615c3d57600080fd5b50565b600a8110615c4d57600080fd5b50565b60058110615c5d57600080fd5b50565b615c6981615681565b8114615c7457600080fd5b5056fea2646970667358221220d2c56f5307ae82e337db421a017cd02b177ebb70edbc1121e13628fad808269964736f6c63430008060033",
  "devdoc": {
    "kind": "dev",
    "methods": {},
    "version": 1
  },
  "userdoc": {
    "kind": "user",
    "methods": {},
    "version": 1
  },
  "storageLayout": {
    "storage": [
      {
        "astId": 11,
        "contract": "contracts/Modicum.sol:Modicum",
        "label": "penaltyRate",
        "offset": 0,
        "slot": "0",
        "type": "t_uint256"
      },
      {
        "astId": 15,
        "contract": "contracts/Modicum.sol:Modicum",
        "label": "owner",
        "offset": 0,
        "slot": "1",
        "type": "t_address"
      },
      {
        "astId": 17,
        "contract": "contracts/Modicum.sol:Modicum",
        "label": "reactionDeadline",
        "offset": 0,
        "slot": "2",
        "type": "t_uint256"
      },
      {
        "astId": 469,
        "contract": "contracts/Modicum.sol:Modicum",
        "label": "mediators",
        "offset": 0,
        "slot": "3",
        "type": "t_mapping(t_address,t_struct(Mediator)72_storage)"
      },
      {
        "astId": 474,
        "contract": "contracts/Modicum.sol:Modicum",
        "label": "resourceProviders",
        "offset": 0,
        "slot": "4",
        "type": "t_mapping(t_address,t_struct(ResourceProvider)54_storage)"
      },
      {
        "astId": 479,
        "contract": "contracts/Modicum.sol:Modicum",
        "label": "jobCreators",
        "offset": 0,
        "slot": "5",
        "type": "t_mapping(t_address,t_struct(JobCreator)39_storage)"
      },
      {
        "astId": 483,
        "contract": "contracts/Modicum.sol:Modicum",
        "label": "resourceOffers",
        "offset": 0,
        "slot": "6",
        "type": "t_array(t_struct(ResourceOffer)128_storage)dyn_storage"
      },
      {
        "astId": 486,
        "contract": "contracts/Modicum.sol:Modicum",
        "label": "joIndex",
        "offset": 0,
        "slot": "7",
        "type": "t_uint256"
      },
      {
        "astId": 491,
        "contract": "contracts/Modicum.sol:Modicum",
        "label": "jobOffersPartOne",
        "offset": 0,
        "slot": "8",
        "type": "t_mapping(t_uint256,t_struct(JobOfferPartOne)89_storage)"
      },
      {
        "astId": 496,
        "contract": "contracts/Modicum.sol:Modicum",
        "label": "jobOffersPartTwo",
        "offset": 0,
        "slot": "9",
        "type": "t_mapping(t_uint256,t_struct(JobOfferPartTwo)107_storage)"
      },
      {
        "astId": 502,
        "contract": "contracts/Modicum.sol:Modicum",
        "label": "findJOIndex",
        "offset": 0,
        "slot": "10",
        "type": "t_mapping(t_address,t_mapping(t_uint256,t_uint256))"
      },
      {
        "astId": 506,
        "contract": "contracts/Modicum.sol:Modicum",
        "label": "matches",
        "offset": 0,
        "slot": "11",
        "type": "t_array(t_struct(Match)146_storage)dyn_storage"
      },
      {
        "astId": 510,
        "contract": "contracts/Modicum.sol:Modicum",
        "label": "results",
        "offset": 0,
        "slot": "12",
        "type": "t_array(t_struct(JobResult)165_storage)dyn_storage"
      },
      {
        "astId": 514,
        "contract": "contracts/Modicum.sol:Modicum",
        "label": "mediatorResults",
        "offset": 0,
        "slot": "13",
        "type": "t_array(t_struct(MediatorResult)185_storage)dyn_storage"
      },
      {
        "astId": 518,
        "contract": "contracts/Modicum.sol:Modicum",
        "label": "jobOfferPartOnePosted",
        "offset": 0,
        "slot": "14",
        "type": "t_mapping(t_uint256,t_bool)"
      },
      {
        "astId": 522,
        "contract": "contracts/Modicum.sol:Modicum",
        "label": "jobOfferPartTwoPosted",
        "offset": 0,
        "slot": "15",
        "type": "t_mapping(t_uint256,t_bool)"
      },
      {
        "astId": 526,
        "contract": "contracts/Modicum.sol:Modicum",
        "label": "mediationRequested",
        "offset": 0,
        "slot": "16",
        "type": "t_mapping(t_uint256,t_bool)"
      },
      {
        "astId": 530,
        "contract": "contracts/Modicum.sol:Modicum",
        "label": "mediated",
        "offset": 0,
        "slot": "17",
        "type": "t_mapping(t_uint256,t_bool)"
      },
      {
        "astId": 534,
        "contract": "contracts/Modicum.sol:Modicum",
        "label": "matchToResult",
        "offset": 0,
        "slot": "18",
        "type": "t_mapping(t_uint256,t_uint256)"
      },
      {
        "astId": 538,
        "contract": "contracts/Modicum.sol:Modicum",
        "label": "resultAvailable",
        "offset": 0,
        "slot": "19",
        "type": "t_mapping(t_uint256,t_bool)"
      },
      {
        "astId": 542,
        "contract": "contracts/Modicum.sol:Modicum",
        "label": "jobOfferMatched",
        "offset": 0,
        "slot": "20",
        "type": "t_mapping(t_uint256,t_bool)"
      },
      {
        "astId": 546,
        "contract": "contracts/Modicum.sol:Modicum",
        "label": "resOfferMatched",
        "offset": 0,
        "slot": "21",
        "type": "t_mapping(t_uint256,t_bool)"
      },
      {
        "astId": 550,
        "contract": "contracts/Modicum.sol:Modicum",
        "label": "isJobOfferCanceled",
        "offset": 0,
        "slot": "22",
        "type": "t_mapping(t_uint256,t_bool)"
      },
      {
        "astId": 554,
        "contract": "contracts/Modicum.sol:Modicum",
        "label": "isResOfferCanceled",
        "offset": 0,
        "slot": "23",
        "type": "t_mapping(t_uint256,t_bool)"
      },
      {
        "astId": 558,
        "contract": "contracts/Modicum.sol:Modicum",
        "label": "isMatchClosed",
        "offset": 0,
        "slot": "24",
        "type": "t_mapping(t_uint256,t_bool)"
      },
      {
        "astId": 561,
        "contract": "contracts/Modicum.sol:Modicum",
        "label": "internalRunModuleIncrementingID",
        "offset": 0,
        "slot": "25",
        "type": "t_uint256"
      },
      {
        "astId": 565,
        "contract": "contracts/Modicum.sol:Modicum",
        "label": "runModuleJobOwners",
        "offset": 0,
        "slot": "26",
        "type": "t_mapping(t_uint256,t_address)"
      },
      {
        "astId": 568,
        "contract": "contracts/Modicum.sol:Modicum",
        "label": "defaultMediators",
        "offset": 0,
        "slot": "27",
        "type": "t_array(t_address)dyn_storage"
      },
      {
        "astId": 572,
        "contract": "contracts/Modicum.sol:Modicum",
        "label": "moduleCosts",
        "offset": 0,
        "slot": "28",
        "type": "t_mapping(t_string_memory_ptr,t_uint256)"
      },
      {
        "astId": 575,
        "contract": "contracts/Modicum.sol:Modicum",
        "label": "moduleNames",
        "offset": 0,
        "slot": "29",
        "type": "t_array(t_string_storage)dyn_storage"
      },
      {
        "astId": 578,
        "contract": "contracts/Modicum.sol:Modicum",
        "label": "resourceProviderDepositMultiple",
        "offset": 0,
        "slot": "30",
        "type": "t_uint256"
      }
    ],
    "types": {
      "t_address": {
        "encoding": "inplace",
        "label": "address",
        "numberOfBytes": "20"
      },
      "t_array(t_address)dyn_storage": {
        "base": "t_address",
        "encoding": "dynamic_array",
        "label": "address[]",
        "numberOfBytes": "32"
      },
      "t_array(t_string_storage)dyn_storage": {
        "base": "t_string_storage",
        "encoding": "dynamic_array",
        "label": "string[]",
        "numberOfBytes": "32"
      },
      "t_array(t_struct(JobResult)165_storage)dyn_storage": {
        "base": "t_struct(JobResult)165_storage",
        "encoding": "dynamic_array",
        "label": "struct Modicum.JobResult[]",
        "numberOfBytes": "32"
      },
      "t_array(t_struct(Match)146_storage)dyn_storage": {
        "base": "t_struct(Match)146_storage",
        "encoding": "dynamic_array",
        "label": "struct Modicum.Match[]",
        "numberOfBytes": "32"
      },
      "t_array(t_struct(MediatorResult)185_storage)dyn_storage": {
        "base": "t_struct(MediatorResult)185_storage",
        "encoding": "dynamic_array",
        "label": "struct Modicum.MediatorResult[]",
        "numberOfBytes": "32"
      },
      "t_array(t_struct(ResourceOffer)128_storage)dyn_storage": {
        "base": "t_struct(ResourceOffer)128_storage",
        "encoding": "dynamic_array",
        "label": "struct Modicum.ResourceOffer[]",
        "numberOfBytes": "32"
      },
      "t_array(t_uint256)dyn_storage": {
        "base": "t_uint256",
        "encoding": "dynamic_array",
        "label": "uint256[]",
        "numberOfBytes": "32"
      },
      "t_bool": {
        "encoding": "inplace",
        "label": "bool",
        "numberOfBytes": "1"
      },
      "t_enum(Architecture)33": {
        "encoding": "inplace",
        "label": "enum Modicum.Architecture",
        "numberOfBytes": "1"
      },
      "t_enum(Party)188": {
        "encoding": "inplace",
        "label": "enum Modicum.Party",
        "numberOfBytes": "1"
      },
      "t_enum(Reaction)198": {
        "encoding": "inplace",
        "label": "enum Modicum.Reaction",
        "numberOfBytes": "1"
      },
      "t_enum(ResultStatus)139": {
        "encoding": "inplace",
        "label": "enum Modicum.ResultStatus",
        "numberOfBytes": "1"
      },
      "t_enum(Verdict)194": {
        "encoding": "inplace",
        "label": "enum Modicum.Verdict",
        "numberOfBytes": "1"
      },
      "t_mapping(t_address,t_mapping(t_uint256,t_uint256))": {
        "encoding": "mapping",
        "key": "t_address",
        "label": "mapping(address => mapping(uint256 => uint256))",
        "numberOfBytes": "32",
        "value": "t_mapping(t_uint256,t_uint256)"
      },
      "t_mapping(t_address,t_struct(JobCreator)39_storage)": {
        "encoding": "mapping",
        "key": "t_address",
        "label": "mapping(address => struct Modicum.JobCreator)",
        "numberOfBytes": "32",
        "value": "t_struct(JobCreator)39_storage"
      },
      "t_mapping(t_address,t_struct(Mediator)72_storage)": {
        "encoding": "mapping",
        "key": "t_address",
        "label": "mapping(address => struct Modicum.Mediator)",
        "numberOfBytes": "32",
        "value": "t_struct(Mediator)72_storage"
      },
      "t_mapping(t_address,t_struct(ResourceProvider)54_storage)": {
        "encoding": "mapping",
        "key": "t_address",
        "label": "mapping(address => struct Modicum.ResourceProvider)",
        "numberOfBytes": "32",
        "value": "t_struct(ResourceProvider)54_storage"
      },
      "t_mapping(t_string_memory_ptr,t_uint256)": {
        "encoding": "mapping",
        "key": "t_string_memory_ptr",
        "label": "mapping(string => uint256)",
        "numberOfBytes": "32",
        "value": "t_uint256"
      },
      "t_mapping(t_uint256,t_address)": {
        "encoding": "mapping",
        "key": "t_uint256",
        "label": "mapping(uint256 => address)",
        "numberOfBytes": "32",
        "value": "t_address"
      },
      "t_mapping(t_uint256,t_bool)": {
        "encoding": "mapping",
        "key": "t_uint256",
        "label": "mapping(uint256 => bool)",
        "numberOfBytes": "32",
        "value": "t_bool"
      },
      "t_mapping(t_uint256,t_struct(JobOfferPartOne)89_storage)": {
        "encoding": "mapping",
        "key": "t_uint256",
        "label": "mapping(uint256 => struct Modicum.JobOfferPartOne)",
        "numberOfBytes": "32",
        "value": "t_struct(JobOfferPartOne)89_storage"
      },
      "t_mapping(t_uint256,t_struct(JobOfferPartTwo)107_storage)": {
        "encoding": "mapping",
        "key": "t_uint256",
        "label": "mapping(uint256 => struct Modicum.JobOfferPartTwo)",
        "numberOfBytes": "32",
        "value": "t_struct(JobOfferPartTwo)107_storage"
      },
      "t_mapping(t_uint256,t_uint256)": {
        "encoding": "mapping",
        "key": "t_uint256",
        "label": "mapping(uint256 => uint256)",
        "numberOfBytes": "32",
        "value": "t_uint256"
      },
      "t_string_memory_ptr": {
        "encoding": "bytes",
        "label": "string",
        "numberOfBytes": "32"
      },
      "t_string_storage": {
        "encoding": "bytes",
        "label": "string",
        "numberOfBytes": "32"
      },
      "t_struct(JobCreator)39_storage": {
        "encoding": "inplace",
        "label": "struct Modicum.JobCreator",
        "members": [
          {
            "astId": 36,
            "contract": "contracts/Modicum.sol:Modicum",
            "label": "trustedMediators",
            "offset": 0,
            "slot": "0",
            "type": "t_array(t_address)dyn_storage"
          },
          {
            "astId": 38,
            "contract": "contracts/Modicum.sol:Modicum",
            "label": "itShouldntBeHere",
            "offset": 0,
            "slot": "1",
            "type": "t_uint256"
          }
        ],
        "numberOfBytes": "64"
      },
      "t_struct(JobOfferPartOne)89_storage": {
        "encoding": "inplace",
        "label": "struct Modicum.JobOfferPartOne",
        "members": [
          {
            "astId": 74,
            "contract": "contracts/Modicum.sol:Modicum",
            "label": "jobCreator",
            "offset": 0,
            "slot": "0",
            "type": "t_address"
          },
          {
            "astId": 76,
            "contract": "contracts/Modicum.sol:Modicum",
            "label": "depositValue",
            "offset": 0,
            "slot": "1",
            "type": "t_uint256"
          },
          {
            "astId": 78,
            "contract": "contracts/Modicum.sol:Modicum",
            "label": "instructionLimit",
            "offset": 0,
            "slot": "2",
            "type": "t_uint256"
          },
          {
            "astId": 80,
            "contract": "contracts/Modicum.sol:Modicum",
            "label": "bandwidthLimit",
            "offset": 0,
            "slot": "3",
            "type": "t_uint256"
          },
          {
            "astId": 82,
            "contract": "contracts/Modicum.sol:Modicum",
            "label": "instructionMaxPrice",
            "offset": 0,
            "slot": "4",
            "type": "t_uint256"
          },
          {
            "astId": 84,
            "contract": "contracts/Modicum.sol:Modicum",
            "label": "bandwidthMaxPrice",
            "offset": 0,
            "slot": "5",
            "type": "t_uint256"
          },
          {
            "astId": 86,
            "contract": "contracts/Modicum.sol:Modicum",
            "label": "completionDeadline",
            "offset": 0,
            "slot": "6",
            "type": "t_uint256"
          },
          {
            "astId": 88,
            "contract": "contracts/Modicum.sol:Modicum",
            "label": "matchIncentive",
            "offset": 0,
            "slot": "7",
            "type": "t_uint256"
          }
        ],
        "numberOfBytes": "256"
      },
      "t_struct(JobOfferPartTwo)107_storage": {
        "encoding": "inplace",
        "label": "struct Modicum.JobOfferPartTwo",
        "members": [
          {
            "astId": 91,
            "contract": "contracts/Modicum.sol:Modicum",
            "label": "jobCreator",
            "offset": 0,
            "slot": "0",
            "type": "t_address"
          },
          {
            "astId": 93,
            "contract": "contracts/Modicum.sol:Modicum",
            "label": "ramLimit",
            "offset": 0,
            "slot": "1",
            "type": "t_uint256"
          },
          {
            "astId": 95,
            "contract": "contracts/Modicum.sol:Modicum",
            "label": "localStorageLimit",
            "offset": 0,
            "slot": "2",
            "type": "t_uint256"
          },
          {
            "astId": 97,
            "contract": "contracts/Modicum.sol:Modicum",
            "label": "uri",
            "offset": 0,
            "slot": "3",
            "type": "t_string_storage"
          },
          {
            "astId": 99,
            "contract": "contracts/Modicum.sol:Modicum",
            "label": "directory",
            "offset": 0,
            "slot": "4",
            "type": "t_address"
          },
          {
            "astId": 101,
            "contract": "contracts/Modicum.sol:Modicum",
            "label": "jobHash",
            "offset": 0,
            "slot": "5",
            "type": "t_uint256"
          },
          {
            "astId": 104,
            "contract": "contracts/Modicum.sol:Modicum",
            "label": "arch",
            "offset": 0,
            "slot": "6",
            "type": "t_enum(Architecture)33"
          },
          {
            "astId": 106,
            "contract": "contracts/Modicum.sol:Modicum",
            "label": "extras",
            "offset": 0,
            "slot": "7",
            "type": "t_string_storage"
          }
        ],
        "numberOfBytes": "256"
      },
      "t_struct(JobResult)165_storage": {
        "encoding": "inplace",
        "label": "struct Modicum.JobResult",
        "members": [
          {
            "astId": 149,
            "contract": "contracts/Modicum.sol:Modicum",
            "label": "status",
            "offset": 0,
            "slot": "0",
            "type": "t_enum(ResultStatus)139"
          },
          {
            "astId": 151,
            "contract": "contracts/Modicum.sol:Modicum",
            "label": "uri",
            "offset": 0,
            "slot": "1",
            "type": "t_string_storage"
          },
          {
            "astId": 153,
            "contract": "contracts/Modicum.sol:Modicum",
            "label": "matchId",
            "offset": 0,
            "slot": "2",
            "type": "t_uint256"
          },
          {
            "astId": 155,
            "contract": "contracts/Modicum.sol:Modicum",
            "label": "hash",
            "offset": 0,
            "slot": "3",
            "type": "t_string_storage"
          },
          {
            "astId": 157,
            "contract": "contracts/Modicum.sol:Modicum",
            "label": "instructionCount",
            "offset": 0,
            "slot": "4",
            "type": "t_uint256"
          },
          {
            "astId": 159,
            "contract": "contracts/Modicum.sol:Modicum",
            "label": "bandwidthUsage",
            "offset": 0,
            "slot": "5",
            "type": "t_uint256"
          },
          {
            "astId": 162,
            "contract": "contracts/Modicum.sol:Modicum",
            "label": "reacted",
            "offset": 0,
            "slot": "6",
            "type": "t_enum(Reaction)198"
          },
          {
            "astId": 164,
            "contract": "contracts/Modicum.sol:Modicum",
            "label": "timestamp",
            "offset": 0,
            "slot": "7",
            "type": "t_uint256"
          }
        ],
        "numberOfBytes": "256"
      },
      "t_struct(Match)146_storage": {
        "encoding": "inplace",
        "label": "struct Modicum.Match",
        "members": [
          {
            "astId": 141,
            "contract": "contracts/Modicum.sol:Modicum",
            "label": "resourceOffer",
            "offset": 0,
            "slot": "0",
            "type": "t_uint256"
          },
          {
            "astId": 143,
            "contract": "contracts/Modicum.sol:Modicum",
            "label": "jobOffer",
            "offset": 0,
            "slot": "1",
            "type": "t_uint256"
          },
          {
            "astId": 145,
            "contract": "contracts/Modicum.sol:Modicum",
            "label": "mediator",
            "offset": 0,
            "slot": "2",
            "type": "t_address"
          }
        ],
        "numberOfBytes": "96"
      },
      "t_struct(Mediator)72_storage": {
        "encoding": "inplace",
        "label": "struct Modicum.Mediator",
        "members": [
          {
            "astId": 57,
            "contract": "contracts/Modicum.sol:Modicum",
            "label": "arch",
            "offset": 0,
            "slot": "0",
            "type": "t_enum(Architecture)33"
          },
          {
            "astId": 59,
            "contract": "contracts/Modicum.sol:Modicum",
            "label": "instructionPrice",
            "offset": 0,
            "slot": "1",
            "type": "t_uint256"
          },
          {
            "astId": 61,
            "contract": "contracts/Modicum.sol:Modicum",
            "label": "bandwidthPrice",
            "offset": 0,
            "slot": "2",
            "type": "t_uint256"
          },
          {
            "astId": 64,
            "contract": "contracts/Modicum.sol:Modicum",
            "label": "trustedDirectories",
            "offset": 0,
            "slot": "3",
            "type": "t_array(t_address)dyn_storage"
          },
          {
            "astId": 67,
            "contract": "contracts/Modicum.sol:Modicum",
            "label": "supportedFirstLayers",
            "offset": 0,
            "slot": "4",
            "type": "t_array(t_uint256)dyn_storage"
          },
          {
            "astId": 69,
            "contract": "contracts/Modicum.sol:Modicum",
            "label": "availabilityValue",
            "offset": 0,
            "slot": "5",
            "type": "t_uint256"
          },
          {
            "astId": 71,
            "contract": "contracts/Modicum.sol:Modicum",
            "label": "verificationCount",
            "offset": 0,
            "slot": "6",
            "type": "t_uint256"
          }
        ],
        "numberOfBytes": "224"
      },
      "t_struct(MediatorResult)185_storage": {
        "encoding": "inplace",
        "label": "struct Modicum.MediatorResult",
        "members": [
          {
            "astId": 168,
            "contract": "contracts/Modicum.sol:Modicum",
            "label": "status",
            "offset": 0,
            "slot": "0",
            "type": "t_enum(ResultStatus)139"
          },
          {
            "astId": 170,
            "contract": "contracts/Modicum.sol:Modicum",
            "label": "uri",
            "offset": 0,
            "slot": "1",
            "type": "t_string_storage"
          },
          {
            "astId": 172,
            "contract": "contracts/Modicum.sol:Modicum",
            "label": "matchId",
            "offset": 0,
            "slot": "2",
            "type": "t_uint256"
          },
          {
            "astId": 174,
            "contract": "contracts/Modicum.sol:Modicum",
            "label": "hash",
            "offset": 0,
            "slot": "3",
            "type": "t_string_storage"
          },
          {
            "astId": 176,
            "contract": "contracts/Modicum.sol:Modicum",
            "label": "instructionCount",
            "offset": 0,
            "slot": "4",
            "type": "t_uint256"
          },
          {
            "astId": 178,
            "contract": "contracts/Modicum.sol:Modicum",
            "label": "bandwidthUsage",
            "offset": 0,
            "slot": "5",
            "type": "t_uint256"
          },
          {
            "astId": 181,
            "contract": "contracts/Modicum.sol:Modicum",
            "label": "verdict",
            "offset": 0,
            "slot": "6",
            "type": "t_enum(Verdict)194"
          },
          {
            "astId": 184,
            "contract": "contracts/Modicum.sol:Modicum",
            "label": "faultyParty",
            "offset": 1,
            "slot": "6",
            "type": "t_enum(Party)188"
          }
        ],
        "numberOfBytes": "224"
      },
      "t_struct(ResourceOffer)128_storage": {
        "encoding": "inplace",
        "label": "struct Modicum.ResourceOffer",
        "members": [
          {
            "astId": 109,
            "contract": "contracts/Modicum.sol:Modicum",
            "label": "resProvider",
            "offset": 0,
            "slot": "0",
            "type": "t_address"
          },
          {
            "astId": 111,
            "contract": "contracts/Modicum.sol:Modicum",
            "label": "depositValue",
            "offset": 0,
            "slot": "1",
            "type": "t_uint256"
          },
          {
            "astId": 113,
            "contract": "contracts/Modicum.sol:Modicum",
            "label": "instructionPrice",
            "offset": 0,
            "slot": "2",
            "type": "t_uint256"
          },
          {
            "astId": 115,
            "contract": "contracts/Modicum.sol:Modicum",
            "label": "instructionCap",
            "offset": 0,
            "slot": "3",
            "type": "t_uint256"
          },
          {
            "astId": 117,
            "contract": "contracts/Modicum.sol:Modicum",
            "label": "memoryCap",
            "offset": 0,
            "slot": "4",
            "type": "t_uint256"
          },
          {
            "astId": 119,
            "contract": "contracts/Modicum.sol:Modicum",
            "label": "localStorageCap",
            "offset": 0,
            "slot": "5",
            "type": "t_uint256"
          },
          {
            "astId": 121,
            "contract": "contracts/Modicum.sol:Modicum",
            "label": "bandwidthCap",
            "offset": 0,
            "slot": "6",
            "type": "t_uint256"
          },
          {
            "astId": 123,
            "contract": "contracts/Modicum.sol:Modicum",
            "label": "bandwidthPrice",
            "offset": 0,
            "slot": "7",
            "type": "t_uint256"
          },
          {
            "astId": 125,
            "contract": "contracts/Modicum.sol:Modicum",
            "label": "matchIncentive",
            "offset": 0,
            "slot": "8",
            "type": "t_uint256"
          },
          {
            "astId": 127,
            "contract": "contracts/Modicum.sol:Modicum",
            "label": "verificationCount",
            "offset": 0,
            "slot": "9",
            "type": "t_uint256"
          }
        ],
        "numberOfBytes": "320"
      },
      "t_struct(ResourceProvider)54_storage": {
        "encoding": "inplace",
        "label": "struct Modicum.ResourceProvider",
        "members": [
          {
            "astId": 42,
            "contract": "contracts/Modicum.sol:Modicum",
            "label": "trustedMediators",
            "offset": 0,
            "slot": "0",
            "type": "t_array(t_address)dyn_storage"
          },
          {
            "astId": 45,
            "contract": "contracts/Modicum.sol:Modicum",
            "label": "trustedDirectories",
            "offset": 0,
            "slot": "1",
            "type": "t_array(t_address)dyn_storage"
          },
          {
            "astId": 48,
            "contract": "contracts/Modicum.sol:Modicum",
            "label": "supportedFirstLayers",
            "offset": 0,
            "slot": "2",
            "type": "t_array(t_uint256)dyn_storage"
          },
          {
            "astId": 51,
            "contract": "contracts/Modicum.sol:Modicum",
            "label": "arch",
            "offset": 0,
            "slot": "3",
            "type": "t_enum(Architecture)33"
          },
          {
            "astId": 53,
            "contract": "contracts/Modicum.sol:Modicum",
            "label": "timePerInstruction",
            "offset": 0,
            "slot": "4",
            "type": "t_uint256"
          }
        ],
        "numberOfBytes": "160"
      },
      "t_uint256": {
        "encoding": "inplace",
        "label": "uint256",
        "numberOfBytes": "32"
      }
    }
  }
}