{
  "address": "0x6Fd13d0A4ba71f416ae29dBa67c15DDc9Df35768",
  "abi": [
    {
      "inputs": [
        {
          "internalType": "address",
          "name": "contractAddress",
          "type": "address"
        }
      ],
      "stateMutability": "nonpayable",
      "type": "constructor"
    },
    {
      "anonymous": false,
      "inputs": [
        {
          "indexed": false,
          "internalType": "uint256",
          "name": "jobID",
          "type": "uint256"
        },
        {
          "indexed": false,
          "internalType": "string",
          "name": "cid",
          "type": "string"
        }
      ],
      "name": "ReceivedJobResults",
      "type": "event"
    },
    {
      "inputs": [],
      "name": "_contractAddress",
      "outputs": [
        {
          "internalType": "address",
          "name": "",
          "type": "address"
        }
      ],
      "stateMutability": "view",
      "type": "function"
    },
    {
      "inputs": [
        {
          "internalType": "uint256",
          "name": "jobID",
          "type": "uint256"
        },
        {
          "internalType": "string",
          "name": "cid",
          "type": "string"
        }
      ],
      "name": "receiveJobResults",
      "outputs": [],
      "stateMutability": "nonpayable",
      "type": "function"
    },
    {
      "inputs": [
        {
          "internalType": "string",
          "name": "sayWhat",
          "type": "string"
        }
      ],
      "name": "runCowsay",
      "outputs": [
        {
          "internalType": "uint256",
          "name": "",
          "type": "uint256"
        }
      ],
      "stateMutability": "payable",
      "type": "function"
    },
    {
      "inputs": [
        {
          "internalType": "string",
          "name": "name",
          "type": "string"
        },
        {
          "internalType": "string",
          "name": "params",
          "type": "string"
        }
      ],
      "name": "runModule",
      "outputs": [
        {
          "internalType": "uint256",
          "name": "",
          "type": "uint256"
        }
      ],
      "stateMutability": "payable",
      "type": "function"
    },
    {
      "inputs": [
        {
          "internalType": "string",
          "name": "prompt",
          "type": "string"
        }
      ],
      "name": "runStablediffusion",
      "outputs": [
        {
          "internalType": "uint256",
          "name": "",
          "type": "uint256"
        }
      ],
      "stateMutability": "payable",
      "type": "function"
    }
  ],
  "transactionHash": "0x557d34b7852d62537dfdc0405bc24038cdf142f7d7b84139d3f23d06ec7c5dd1",
  "args": [
    "0x422F325AA109A3038BDCb7B03Dd0331A4aC2cD1a"
  ],
  "numDeployments": 2,
  "solcInputHash": "ebdb214bfe87d8526c301b948b73c1b1",
  "bytecode": "0x608060405234801561001057600080fd5b50604051610a79380380610a798339818101604052810190610032919061013e565b600073ffffffffffffffffffffffffffffffffffffffff168173ffffffffffffffffffffffffffffffffffffffff1614156100a2576040517f08c379a00000000000000000000000000000000000000000000000000000000081526004016100999061018e565b60405180910390fd5b806000806101000a81548173ffffffffffffffffffffffffffffffffffffffff021916908373ffffffffffffffffffffffffffffffffffffffff16021790555080600160006101000a81548173ffffffffffffffffffffffffffffffffffffffff021916908373ffffffffffffffffffffffffffffffffffffffff1602179055505061025c565b60008151905061013881610245565b92915050565b600060208284031215610154576101536101f1565b5b600061016284828501610129565b91505092915050565b60006101786034836101ae565b9150610183826101f6565b604082019050919050565b600060208201905081810360008301526101a78161016b565b9050919050565b600082825260208201905092915050565b60006101ca826101d1565b9050919050565b600073ffffffffffffffffffffffffffffffffffffffff82169050919050565b600080fd5b7f4e616976654578616d706c6573436c69656e743a20636f6e747261637420636160008201527f6e6e6f74206265207a65726f2061646472657373000000000000000000000000602082015250565b61024e816101bf565b811461025957600080fd5b50565b61080e8061026b6000396000f3fe60806040526004361061004a5760003560e01c8063379887671461004f578063479062291461007a5780637a494362146100aa578063cabc00d1146100d3578063e7ec0c4a14610103575b600080fd5b34801561005b57600080fd5b50610064610133565b60405161007191906105a3565b60405180910390f35b610094600480360381019061008f919061041a565b610157565b6040516100a191906105f5565b60405180910390f35b3480156100b657600080fd5b506100d160048036038101906100cc91906104bf565b610211565b005b6100ed60048036038101906100e891906103d1565b610251565b6040516100fa91906105f5565b60405180910390f35b61011d600480360381019061011891906103d1565b610299565b60405161012a91906105f5565b60405180910390f35b60008054906101000a900473ffffffffffffffffffffffffffffffffffffffff1681565b6000600160009054906101000a900473ffffffffffffffffffffffffffffffffffffffff1673ffffffffffffffffffffffffffffffffffffffff16637ce7b1793485856040518463ffffffff1660e01b81526004016101b79291906105be565b6020604051808303818588803b1580156101d057600080fd5b505af11580156101e4573d6000803e3d6000fd5b50505050506040513d601f19601f820116820180604052508101906102099190610492565b905092915050565b7f22a1da116916c27b56df667a04ad3d734585a27bad5e29cc1e4aeef61f6f1ed383838360405161024493929190610610565b60405180910390a1505050565b60006102926040518060400160405280600d81526020017f636f777361793a76302e302e310000000000000000000000000000000000000081525083610157565b9050919050565b60006102da6040518060400160405280601781526020017f737461626c655f646966667573696f6e3a76302e302e3100000000000000000081525083610157565b9050919050565b60006102f46102ef84610667565b610642565b9050828152602081018484840111156103105761030f6107a1565b5b61031b8482856106f0565b509392505050565b60008083601f84011261033957610338610797565b5b8235905067ffffffffffffffff81111561035657610355610792565b5b6020830191508360018202830111156103725761037161079c565b5b9250929050565b600082601f83011261038e5761038d610797565b5b813561039e8482602086016102e1565b91505092915050565b6000813590506103b6816107c1565b92915050565b6000815190506103cb816107c1565b92915050565b6000602082840312156103e7576103e66107ab565b5b600082013567ffffffffffffffff811115610405576104046107a6565b5b61041184828501610379565b91505092915050565b60008060408385031215610431576104306107ab565b5b600083013567ffffffffffffffff81111561044f5761044e6107a6565b5b61045b85828601610379565b925050602083013567ffffffffffffffff81111561047c5761047b6107a6565b5b61048885828601610379565b9150509250929050565b6000602082840312156104a8576104a76107ab565b5b60006104b6848285016103bc565b91505092915050565b6000806000604084860312156104d8576104d76107ab565b5b60006104e6868287016103a7565b935050602084013567ffffffffffffffff811115610507576105066107a6565b5b61051386828701610323565b92509250509250925092565b610528816106b4565b82525050565b600061053a83856106a3565b93506105478385846106f0565b610550836107b0565b840190509392505050565b600061056682610698565b61057081856106a3565b93506105808185602086016106ff565b610589816107b0565b840191505092915050565b61059d816106e6565b82525050565b60006020820190506105b8600083018461051f565b92915050565b600060408201905081810360008301526105d8818561055b565b905081810360208301526105ec818461055b565b90509392505050565b600060208201905061060a6000830184610594565b92915050565b60006040820190506106256000830186610594565b818103602083015261063881848661052e565b9050949350505050565b600061064c61065d565b90506106588282610732565b919050565b6000604051905090565b600067ffffffffffffffff82111561068257610681610763565b5b61068b826107b0565b9050602081019050919050565b600081519050919050565b600082825260208201905092915050565b60006106bf826106c6565b9050919050565b600073ffffffffffffffffffffffffffffffffffffffff82169050919050565b6000819050919050565b82818337600083830152505050565b60005b8381101561071d578082015181840152602081019050610702565b8381111561072c576000848401525b50505050565b61073b826107b0565b810181811067ffffffffffffffff8211171561075a57610759610763565b5b80604052505050565b7f4e487b7100000000000000000000000000000000000000000000000000000000600052604160045260246000fd5b600080fd5b600080fd5b600080fd5b600080fd5b600080fd5b600080fd5b6000601f19601f8301169050919050565b6107ca816106e6565b81146107d557600080fd5b5056fea264697066735822122061c81f0cae265c6ef83f0adca40a9c0cc8080790cc81fbfed1c075f6922c5bc364736f6c63430008060033",
  "devdoc": {
    "kind": "dev",
    "methods": {},
    "version": 1
  },
  "userdoc": {
    "kind": "user",
    "methods": {},
    "version": 1
  },
  "storageLayout": {
    "storage": [
      {
        "astId": 2186,
        "contract": "contracts/NaiveExamplesClient.sol:NaiveExamplesClient",
        "label": "_contractAddress",
        "offset": 0,
        "slot": "0",
        "type": "t_address"
      },
      {
        "astId": 2189,
        "contract": "contracts/NaiveExamplesClient.sol:NaiveExamplesClient",
        "label": "remoteContractInstance",
        "offset": 0,
        "slot": "1",
        "type": "t_contract(ModicumContract)2184"
      }
    ],
    "types": {
      "t_address": {
        "encoding": "inplace",
        "label": "address",
        "numberOfBytes": "20"
      },
      "t_contract(ModicumContract)2184": {
        "encoding": "inplace",
        "label": "contract ModicumContract",
        "numberOfBytes": "20"
      }
    }
  }
}